{
  "contractName": "ETHServices",
  "abi": [
    {
      "anonymous": false,
      "inputs": [
        {
          "indexed": true,
          "internalType": "address",
          "name": "previousOwner",
          "type": "address"
        },
        {
          "indexed": true,
          "internalType": "address",
          "name": "newOwner",
          "type": "address"
        }
      ],
      "name": "OwnershipTransferred",
      "type": "event"
    },
    {
      "anonymous": false,
      "inputs": [
        {
          "indexed": false,
          "internalType": "address",
          "name": "owner",
          "type": "address"
        },
        {
          "components": [
            {
              "internalType": "string",
              "name": "description",
              "type": "string"
            },
            {
              "internalType": "string",
              "name": "title",
              "type": "string"
            },
            {
              "internalType": "uint256",
              "name": "amount",
              "type": "uint256"
            },
            {
              "internalType": "address",
              "name": "owner",
              "type": "address"
            },
            {
              "internalType": "address",
              "name": "contestant",
              "type": "address"
            }
          ],
          "indexed": false,
          "internalType": "struct ETHServices.Service",
          "name": "service",
          "type": "tuple"
        }
      ],
      "name": "serviceDeposited",
      "type": "event"
    },
    {
      "anonymous": false,
      "inputs": [
        {
          "indexed": false,
          "internalType": "address",
          "name": "owner",
          "type": "address"
        },
        {
          "components": [
            {
              "internalType": "string",
              "name": "description",
              "type": "string"
            },
            {
              "internalType": "string",
              "name": "title",
              "type": "string"
            },
            {
              "internalType": "uint256",
              "name": "amount",
              "type": "uint256"
            },
            {
              "internalType": "address",
              "name": "owner",
              "type": "address"
            },
            {
              "internalType": "address",
              "name": "contestant",
              "type": "address"
            }
          ],
          "indexed": false,
          "internalType": "struct ETHServices.Service",
          "name": "service",
          "type": "tuple"
        }
      ],
      "name": "serviceWithdrawn",
      "type": "event"
    },
    {
      "inputs": [
        {
          "internalType": "uint256",
          "name": "",
          "type": "uint256"
        }
      ],
      "name": "depositedAddresses",
      "outputs": [
        {
          "internalType": "address",
          "name": "",
          "type": "address"
        }
      ],
      "stateMutability": "view",
      "type": "function"
    },
    {
      "inputs": [],
      "name": "feeCollected",
      "outputs": [
        {
          "internalType": "uint256",
          "name": "",
          "type": "uint256"
        }
      ],
      "stateMutability": "view",
      "type": "function"
    },
    {
      "inputs": [],
      "name": "owner",
      "outputs": [
        {
          "internalType": "address",
          "name": "",
          "type": "address"
        }
      ],
      "stateMutability": "view",
      "type": "function"
    },
    {
      "inputs": [],
      "name": "renounceOwnership",
      "outputs": [],
      "stateMutability": "nonpayable",
      "type": "function"
    },
    {
      "inputs": [
        {
          "internalType": "address",
          "name": "",
          "type": "address"
        }
      ],
      "name": "services",
      "outputs": [
        {
          "internalType": "string",
          "name": "description",
          "type": "string"
        },
        {
          "internalType": "string",
          "name": "title",
          "type": "string"
        },
        {
          "internalType": "uint256",
          "name": "amount",
          "type": "uint256"
        },
        {
          "internalType": "address",
          "name": "owner",
          "type": "address"
        },
        {
          "internalType": "address",
          "name": "contestant",
          "type": "address"
        }
      ],
      "stateMutability": "view",
      "type": "function"
    },
    {
      "inputs": [
        {
          "internalType": "address",
          "name": "newOwner",
          "type": "address"
        }
      ],
      "name": "transferOwnership",
      "outputs": [],
      "stateMutability": "nonpayable",
      "type": "function"
    },
    {
      "stateMutability": "payable",
      "type": "receive"
    },
    {
      "inputs": [
        {
          "internalType": "address",
          "name": "_service",
          "type": "address"
        }
      ],
      "name": "setContestant",
      "outputs": [],
      "stateMutability": "nonpayable",
      "type": "function"
    },
    {
      "inputs": [
        {
          "internalType": "address",
          "name": "_service",
          "type": "address"
        }
      ],
      "name": "revokeContestant",
      "outputs": [],
      "stateMutability": "nonpayable",
      "type": "function"
    },
    {
      "inputs": [
        {
          "internalType": "string",
          "name": "title",
          "type": "string"
        },
        {
          "internalType": "string",
          "name": "description",
          "type": "string"
        }
      ],
      "name": "deposit",
      "outputs": [],
      "stateMutability": "payable",
      "type": "function"
    },
    {
      "inputs": [],
      "name": "withdraw",
      "outputs": [],
      "stateMutability": "nonpayable",
      "type": "function"
    },
    {
      "inputs": [],
      "name": "getDepositedAddresses",
      "outputs": [
        {
          "internalType": "address[]",
          "name": "",
          "type": "address[]"
        }
      ],
      "stateMutability": "view",
      "type": "function"
    }
  ],
  "bytecode": "0x608060405234801561000f575f80fd5b5061002c61002161003160201b60201c565b61003860201b60201c565b6100f9565b5f33905090565b5f805f9054906101000a900473ffffffffffffffffffffffffffffffffffffffff169050815f806101000a81548173ffffffffffffffffffffffffffffffffffffffff021916908373ffffffffffffffffffffffffffffffffffffffff1602179055508173ffffffffffffffffffffffffffffffffffffffff168173ffffffffffffffffffffffffffffffffffffffff167f8be0079c531659141344cd1fd0a4f28419497f9722a3daafe3b4186f6b6457e060405160405180910390a35050565b611f3c806101065f395ff3fe60806040526004361061009f575f3560e01c8063715018a611610063578063715018a61461018e5780637a9b486d146101a45780638ab34bed146101c05780638da5cb5b146101ea578063baba65a114610214578063f2fde38b1461023c576100a6565b80630a94ffc2146100aa5780633ccfd60b146100e657806350aa8d25146100fc5780636ca7f95c146101245780636d966d011461014e576100a6565b366100a657005b5f80fd5b3480156100b5575f80fd5b506100d060048036038101906100cb91906111e7565b610264565b6040516100dd9190611251565b60405180910390f35b3480156100f1575f80fd5b506100fa61029f565b005b348015610107575f80fd5b50610122600480360381019061011d9190611294565b61076c565b005b34801561012f575f80fd5b506101386108ba565b60405161014591906112ce565b60405180910390f35b348015610159575f80fd5b50610174600480360381019061016f9190611294565b6108c0565b604051610185959493929190611371565b60405180910390f35b348015610199575f80fd5b506101a2610a3c565b005b6101be60048036038101906101b99190611431565b610a4f565b005b3480156101cb575f80fd5b506101d4610d4f565b6040516101e19190611566565b60405180910390f35b3480156101f5575f80fd5b506101fe610dda565b60405161020b9190611251565b60405180910390f35b34801561021f575f80fd5b5061023a60048036038101906102359190611294565b610e01565b005b348015610247575f80fd5b50610262600480360381019061025d9190611294565b610fe4565b005b60038181548110610273575f80fd5b905f5260205f20015f915054906101000a900473ffffffffffffffffffffffffffffffffffffffff1681565b5f60015f3373ffffffffffffffffffffffffffffffffffffffff1673ffffffffffffffffffffffffffffffffffffffff1681526020019081526020015f206002015411610321576040517f08c379a0000000000000000000000000000000000000000000000000000000008152600401610318906115f6565b60405180910390fd5b5f73ffffffffffffffffffffffffffffffffffffffff1660015f3373ffffffffffffffffffffffffffffffffffffffff1673ffffffffffffffffffffffffffffffffffffffff1681526020019081526020015f206004015f9054906101000a900473ffffffffffffffffffffffffffffffffffffffff1673ffffffffffffffffffffffffffffffffffffffff16036103b7575f80fd5b60015f3373ffffffffffffffffffffffffffffffffffffffff1673ffffffffffffffffffffffffffffffffffffffff1681526020019081526020015f206003015f9054906101000a900473ffffffffffffffffffffffffffffffffffffffff1673ffffffffffffffffffffffffffffffffffffffff163373ffffffffffffffffffffffffffffffffffffffff161461044d575f80fd5b60015f3373ffffffffffffffffffffffffffffffffffffffff1673ffffffffffffffffffffffffffffffffffffffff1681526020019081526020015f206004015f9054906101000a900473ffffffffffffffffffffffffffffffffffffffff1673ffffffffffffffffffffffffffffffffffffffff166108fc60015f3373ffffffffffffffffffffffffffffffffffffffff1673ffffffffffffffffffffffffffffffffffffffff1681526020019081526020015f206002015490811502906040515f60405180830381858888f1935050505015801561052f573d5f803e3d5ffd5b507fe72e3dd95aba53ef21ae5523739b843bf1fcd37347387422fcdd06d4d2ba19343360015f3373ffffffffffffffffffffffffffffffffffffffff1673ffffffffffffffffffffffffffffffffffffffff1681526020019081526020015f2060405161059d929190611823565b60405180910390a15f60015f3373ffffffffffffffffffffffffffffffffffffffff1673ffffffffffffffffffffffffffffffffffffffff1681526020019081526020015f20600201819055505f5b600380549050811015610769573373ffffffffffffffffffffffffffffffffffffffff166003828154811061062457610623611851565b5b905f5260205f20015f9054906101000a900473ffffffffffffffffffffffffffffffffffffffff1673ffffffffffffffffffffffffffffffffffffffff1603610756576003600160038054905061067b91906118ab565b8154811061068c5761068b611851565b5b905f5260205f20015f9054906101000a900473ffffffffffffffffffffffffffffffffffffffff16600382815481106106c8576106c7611851565b5b905f5260205f20015f6101000a81548173ffffffffffffffffffffffffffffffffffffffff021916908373ffffffffffffffffffffffffffffffffffffffff160217905550600380548061071f5761071e6118de565b5b600190038181905f5260205f20015f6101000a81549073ffffffffffffffffffffffffffffffffffffffff02191690559055610769565b80806107619061190b565b9150506105ec565b50565b5f73ffffffffffffffffffffffffffffffffffffffff1660015f8373ffffffffffffffffffffffffffffffffffffffff1673ffffffffffffffffffffffffffffffffffffffff1681526020019081526020015f206004015f9054906101000a900473ffffffffffffffffffffffffffffffffffffffff1673ffffffffffffffffffffffffffffffffffffffff1614610839576040517f08c379a00000000000000000000000000000000000000000000000000000000081526004016108309061199c565b60405180910390fd5b3360015f8373ffffffffffffffffffffffffffffffffffffffff1673ffffffffffffffffffffffffffffffffffffffff1681526020019081526020015f206004015f6101000a81548173ffffffffffffffffffffffffffffffffffffffff021916908373ffffffffffffffffffffffffffffffffffffffff16021790555050565b60025481565b6001602052805f5260405f205f91509050805f0180546108df90611641565b80601f016020809104026020016040519081016040528092919081815260200182805461090b90611641565b80156109565780601f1061092d57610100808354040283529160200191610956565b820191905f5260205f20905b81548152906001019060200180831161093957829003601f168201915b50505050509080600101805461096b90611641565b80601f016020809104026020016040519081016040528092919081815260200182805461099790611641565b80156109e25780601f106109b9576101008083540402835291602001916109e2565b820191905f5260205f20905b8154815290600101906020018083116109c557829003601f168201915b505050505090806002015490806003015f9054906101000a900473ffffffffffffffffffffffffffffffffffffffff1690806004015f9054906101000a900473ffffffffffffffffffffffffffffffffffffffff16905085565b610a44611066565b610a4d5f6110e4565b565b5f60015f3373ffffffffffffffffffffffffffffffffffffffff1673ffffffffffffffffffffffffffffffffffffffff1681526020019081526020015f206002015414610ad1576040517f08c379a0000000000000000000000000000000000000000000000000000000008152600401610ac890611a2a565b60405180910390fd5b3360015f3373ffffffffffffffffffffffffffffffffffffffff1673ffffffffffffffffffffffffffffffffffffffff1681526020019081526020015f206003015f6101000a81548173ffffffffffffffffffffffffffffffffffffffff021916908373ffffffffffffffffffffffffffffffffffffffff160217905550838360015f3373ffffffffffffffffffffffffffffffffffffffff1673ffffffffffffffffffffffffffffffffffffffff1681526020019081526020015f206001019182610b9e929190611c0a565b50818160015f3373ffffffffffffffffffffffffffffffffffffffff1673ffffffffffffffffffffffffffffffffffffffff1681526020019081526020015f205f019182610bed929190611c0a565b505f6103e8600134610bff9190611cd7565b610c099190611d45565b90508060025f828254610c1c9190611d75565b925050819055508034610c2f91906118ab565b60015f3373ffffffffffffffffffffffffffffffffffffffff1673ffffffffffffffffffffffffffffffffffffffff1681526020019081526020015f2060020181905550600333908060018154018082558091505060019003905f5260205f20015f9091909190916101000a81548173ffffffffffffffffffffffffffffffffffffffff021916908373ffffffffffffffffffffffffffffffffffffffff1602179055507f2bdde941012752473daac690de54efb4e7c0eeab1f94910e759296414c48be003360015f3373ffffffffffffffffffffffffffffffffffffffff1673ffffffffffffffffffffffffffffffffffffffff1681526020019081526020015f20604051610d40929190611823565b60405180910390a15050505050565b60606003805480602002602001604051908101604052809291908181526020018280548015610dd057602002820191905f5260205f20905b815f9054906101000a900473ffffffffffffffffffffffffffffffffffffffff1673ffffffffffffffffffffffffffffffffffffffff1681526020019060010190808311610d87575b5050505050905090565b5f805f9054906101000a900473ffffffffffffffffffffffffffffffffffffffff16905090565b3373ffffffffffffffffffffffffffffffffffffffff1660015f8373ffffffffffffffffffffffffffffffffffffffff1673ffffffffffffffffffffffffffffffffffffffff1681526020019081526020015f206003015f9054906101000a900473ffffffffffffffffffffffffffffffffffffffff1673ffffffffffffffffffffffffffffffffffffffff161480610f2457503373ffffffffffffffffffffffffffffffffffffffff1660015f8373ffffffffffffffffffffffffffffffffffffffff1673ffffffffffffffffffffffffffffffffffffffff1681526020019081526020015f206004015f9054906101000a900473ffffffffffffffffffffffffffffffffffffffff1673ffffffffffffffffffffffffffffffffffffffff16145b610f63576040517f08c379a0000000000000000000000000000000000000000000000000000000008152600401610f5a90611df2565b60405180910390fd5b5f60015f8373ffffffffffffffffffffffffffffffffffffffff1673ffffffffffffffffffffffffffffffffffffffff1681526020019081526020015f206004015f6101000a81548173ffffffffffffffffffffffffffffffffffffffff021916908373ffffffffffffffffffffffffffffffffffffffff16021790555050565b610fec611066565b5f73ffffffffffffffffffffffffffffffffffffffff168173ffffffffffffffffffffffffffffffffffffffff160361105a576040517f08c379a000000000000000000000000000000000000000000000000000000000815260040161105190611e80565b60405180910390fd5b611063816110e4565b50565b61106e6111a5565b73ffffffffffffffffffffffffffffffffffffffff1661108c610dda565b73ffffffffffffffffffffffffffffffffffffffff16146110e2576040517f08c379a00000000000000000000000000000000000000000000000000000000081526004016110d990611ee8565b60405180910390fd5b565b5f805f9054906101000a900473ffffffffffffffffffffffffffffffffffffffff169050815f806101000a81548173ffffffffffffffffffffffffffffffffffffffff021916908373ffffffffffffffffffffffffffffffffffffffff1602179055508173ffffffffffffffffffffffffffffffffffffffff168173ffffffffffffffffffffffffffffffffffffffff167f8be0079c531659141344cd1fd0a4f28419497f9722a3daafe3b4186f6b6457e060405160405180910390a35050565b5f33905090565b5f80fd5b5f80fd5b5f819050919050565b6111c6816111b4565b81146111d0575f80fd5b50565b5f813590506111e1816111bd565b92915050565b5f602082840312156111fc576111fb6111ac565b5b5f611209848285016111d3565b91505092915050565b5f73ffffffffffffffffffffffffffffffffffffffff82169050919050565b5f61123b82611212565b9050919050565b61124b81611231565b82525050565b5f6020820190506112645f830184611242565b92915050565b61127381611231565b811461127d575f80fd5b50565b5f8135905061128e8161126a565b92915050565b5f602082840312156112a9576112a86111ac565b5b5f6112b684828501611280565b91505092915050565b6112c8816111b4565b82525050565b5f6020820190506112e15f8301846112bf565b92915050565b5f81519050919050565b5f82825260208201905092915050565b5f5b8381101561131e578082015181840152602081019050611303565b5f8484015250505050565b5f601f19601f8301169050919050565b5f611343826112e7565b61134d81856112f1565b935061135d818560208601611301565b61136681611329565b840191505092915050565b5f60a0820190508181035f8301526113898188611339565b9050818103602083015261139d8187611339565b90506113ac60408301866112bf565b6113b96060830185611242565b6113c66080830184611242565b9695505050505050565b5f80fd5b5f80fd5b5f80fd5b5f8083601f8401126113f1576113f06113d0565b5b8235905067ffffffffffffffff81111561140e5761140d6113d4565b5b60208301915083600182028301111561142a576114296113d8565b5b9250929050565b5f805f8060408587031215611449576114486111ac565b5b5f85013567ffffffffffffffff811115611466576114656111b0565b5b611472878288016113dc565b9450945050602085013567ffffffffffffffff811115611495576114946111b0565b5b6114a1878288016113dc565b925092505092959194509250565b5f81519050919050565b5f82825260208201905092915050565b5f819050602082019050919050565b6114e181611231565b82525050565b5f6114f283836114d8565b60208301905092915050565b5f602082019050919050565b5f611514826114af565b61151e81856114b9565b9350611529836114c9565b805f5b8381101561155957815161154088826114e7565b975061154b836114fe565b92505060018101905061152c565b5085935050505092915050565b5f6020820190508181035f83015261157e818461150a565b905092915050565b7f496e73756666696369656e742062616c616e6365204f722053657276696365205f8201527f6e6f7420617661696c61626c6500000000000000000000000000000000000000602082015250565b5f6115e0602d836112f1565b91506115eb82611586565b604082019050919050565b5f6020820190508181035f83015261160d816115d4565b9050919050565b7f4e487b71000000000000000000000000000000000000000000000000000000005f52602260045260245ffd5b5f600282049050600182168061165857607f821691505b60208210810361166b5761166a611614565b5b50919050565b5f82825260208201905092915050565b5f819050815f5260205f209050919050565b5f815461169f81611641565b6116a98186611671565b9450600182165f81146116c357600181146116d95761170b565b60ff19831686528115156020028601935061170b565b6116e285611681565b5f5b83811015611703578154818901526001820191506020810190506116e4565b808801955050505b50505092915050565b5f815f1c9050919050565b5f819050919050565b5f61173a61173583611714565b61171f565b9050919050565b61174a816111b4565b82525050565b5f73ffffffffffffffffffffffffffffffffffffffff82169050919050565b5f61178161177c83611714565b611750565b9050919050565b5f60a083015f8084018583035f8701526117a28382611693565b9250506001840185830360208701526117bb8382611693565b925050600284015490506117ce81611728565b6117db6040870182611741565b50600384015490506117ec8161176f565b6117f960608701826114d8565b506004840154905061180a8161176f565b61181760808701826114d8565b50819250505092915050565b5f6040820190506118365f830185611242565b81810360208301526118488184611788565b90509392505050565b7f4e487b71000000000000000000000000000000000000000000000000000000005f52603260045260245ffd5b7f4e487b71000000000000000000000000000000000000000000000000000000005f52601160045260245ffd5b5f6118b5826111b4565b91506118c0836111b4565b92508282039050818111156118d8576118d761187e565b5b92915050565b7f4e487b71000000000000000000000000000000000000000000000000000000005f52603160045260245ffd5b5f611915826111b4565b91507fffffffffffffffffffffffffffffffffffffffffffffffffffffffffffffffff82036119475761194661187e565b5b600182019050919050565b7f636f6e74657374616e74206e6f74206e756c6c000000000000000000000000005f82015250565b5f6119866013836112f1565b915061199182611952565b602082019050919050565b5f6020820190508181035f8301526119b38161197a565b9050919050565b7f5573657220616c72656164792068617320612070656e64696e672073657276695f8201527f6365000000000000000000000000000000000000000000000000000000000000602082015250565b5f611a146022836112f1565b9150611a1f826119ba565b604082019050919050565b5f6020820190508181035f830152611a4181611a08565b9050919050565b5f82905092915050565b7f4e487b71000000000000000000000000000000000000000000000000000000005f52604160045260245ffd5b5f6020601f8301049050919050565b5f82821b905092915050565b5f60088302611ac97fffffffffffffffffffffffffffffffffffffffffffffffffffffffffffffffff82611a8e565b611ad38683611a8e565b95508019841693508086168417925050509392505050565b5f819050919050565b5f611b0e611b09611b04846111b4565b611aeb565b6111b4565b9050919050565b5f819050919050565b611b2783611af4565b611b3b611b3382611b15565b848454611a9a565b825550505050565b5f90565b611b4f611b43565b611b5a818484611b1e565b505050565b5b81811015611b7d57611b725f82611b47565b600181019050611b60565b5050565b601f821115611bc257611b9381611681565b611b9c84611a7f565b81016020851015611bab578190505b611bbf611bb785611a7f565b830182611b5f565b50505b505050565b5f82821c905092915050565b5f611be25f1984600802611bc7565b1980831691505092915050565b5f611bfa8383611bd3565b9150826002028217905092915050565b611c148383611a48565b67ffffffffffffffff811115611c2d57611c2c611a52565b5b611c378254611641565b611c42828285611b81565b5f601f831160018114611c6f575f8415611c5d578287013590505b611c678582611bef565b865550611cce565b601f198416611c7d86611681565b5f5b82811015611ca457848901358255600182019150602085019450602081019050611c7f565b86831015611cc15784890135611cbd601f891682611bd3565b8355505b6001600288020188555050505b50505050505050565b5f611ce1826111b4565b9150611cec836111b4565b9250828202611cfa816111b4565b91508282048414831517611d1157611d1061187e565b5b5092915050565b7f4e487b71000000000000000000000000000000000000000000000000000000005f52601260045260245ffd5b5f611d4f826111b4565b9150611d5a836111b4565b925082611d6a57611d69611d18565b5b828204905092915050565b5f611d7f826111b4565b9150611d8a836111b4565b9250828201905080821115611da257611da161187e565b5b92915050565b7f4f7065726174696f6e20466f7262696464656e000000000000000000000000005f82015250565b5f611ddc6013836112f1565b9150611de782611da8565b602082019050919050565b5f6020820190508181035f830152611e0981611dd0565b9050919050565b7f4f776e61626c653a206e6577206f776e657220697320746865207a65726f20615f8201527f6464726573730000000000000000000000000000000000000000000000000000602082015250565b5f611e6a6026836112f1565b9150611e7582611e10565b604082019050919050565b5f6020820190508181035f830152611e9781611e5e565b9050919050565b7f4f776e61626c653a2063616c6c6572206973206e6f7420746865206f776e65725f82015250565b5f611ed26020836112f1565b9150611edd82611e9e565b602082019050919050565b5f6020820190508181035f830152611eff81611ec6565b905091905056fea2646970667358221220d05ac809161c308d27dda5ee4c5b74d9876d1e8bb51b57e6c0914b892572490964736f6c63430008150033",
  "immutableReferences": {},
  "source": "// SPDX-License-Identifier: MIT\npragma solidity ^0.8.13;\n\nimport \"@openzeppelin/contracts/access/Ownable.sol\";\n\ncontract ETHServices is Ownable {\n    struct Service {\n        string description;\n        string title;\n        uint256 amount;\n        address owner;\n        address contestant;\n    }\n\n    mapping(address => Service) public services;\n\n    uint256 public feeCollected;\n\n    address[] public depositedAddresses;\n\n    event serviceDeposited(address owner, Service service);\n\n    event serviceWithdrawn(address owner, Service service);\n\n    function setContestant(address _service) external {\n        require(services[_service].contestant == address(0), \"contestant not null\");\n        services[_service].contestant = msg.sender;\n    }\n\n    function revokeContestant(address _service) external {\n        require(services[_service].owner == msg.sender || services[_service].contestant == msg.sender, \"Operation Forbidden\");\n        services[_service].contestant = address(0);\n    }\n\n    function deposit(string calldata title, string calldata description)\n        external\n        payable\n    {\n        require(\n            services[msg.sender].amount == 0,\n            \"User already has a pending service\"\n        );\n        services[msg.sender].owner = msg.sender;\n        services[msg.sender].title = title;\n        services[msg.sender].description = description;\n        uint256 feeAmount = (msg.value * 1) / 1000;\n        feeCollected += feeAmount;\n        services[msg.sender].amount = msg.value - feeAmount;\n        depositedAddresses.push(msg.sender);\n        emit serviceDeposited(msg.sender, services[msg.sender]);\n    }\n\n    function withdraw() external {\n        require(\n            services[msg.sender].amount > 0,\n            \"Insufficient balance Or Service not available\"\n        );\n        require(services[msg.sender].contestant != address(0));\n        require(msg.sender == services[msg.sender].owner);\n        payable(services[msg.sender].contestant).transfer(services[msg.sender].amount);\n        emit serviceWithdrawn(msg.sender, services[msg.sender]);\n        services[msg.sender].amount = 0;\n        // Remove the address from the depositedAddresses array\n        for (uint256 i = 0; i < depositedAddresses.length; i++) {\n            if (depositedAddresses[i] == msg.sender) {\n                depositedAddresses[i] = depositedAddresses[\n                    depositedAddresses.length - 1\n                ];\n                depositedAddresses.pop();\n                break;\n            }\n        }\n    }\n\n    function getDepositedAddresses() public view returns (address[] memory) {\n        return depositedAddresses;\n    }\n\n    receive() external payable {}\n}\n",
  "sourcePath": "D:\\ethmunich\\backend\\contracts\\ETHServices.sol",
  "compiler": {
    "name": "solc",
    "version": "0.8.21+commit.d9974bed.Emscripten.clang"
  },
  "schemaVersion": "3.4.15",
  "updatedAt": "2023-08-12T13:20:50.881Z",
  "devdoc": {
    "kind": "dev",
    "methods": {
      "owner()": {
        "details": "Returns the address of the current owner."
      },
      "renounceOwnership()": {
        "details": "Leaves the contract without owner. It will not be possible to call `onlyOwner` functions. Can only be called by the current owner. NOTE: Renouncing ownership will leave the contract without an owner, thereby disabling any functionality that is only available to the owner."
      },
      "transferOwnership(address)": {
        "details": "Transfers ownership of the contract to a new account (`newOwner`). Can only be called by the current owner."
      }
    },
    "version": 1
  },
  "userdoc": {
    "kind": "user",
    "methods": {},
    "version": 1
  }
}