{
  "contractName": "ETHServices",
  "abi": [
    {
      "anonymous": false,
      "inputs": [
        {
          "indexed": true,
          "internalType": "address",
          "name": "previousOwner",
          "type": "address"
        },
        {
          "indexed": true,
          "internalType": "address",
          "name": "newOwner",
          "type": "address"
        }
      ],
      "name": "OwnershipTransferred",
      "type": "event"
    },
    {
      "anonymous": false,
      "inputs": [
        {
          "indexed": false,
          "internalType": "address",
          "name": "owner",
          "type": "address"
        },
        {
          "components": [
            {
              "internalType": "string",
              "name": "description",
              "type": "string"
            },
            {
              "internalType": "string",
              "name": "title",
              "type": "string"
            },
            {
              "internalType": "uint256",
              "name": "amount",
              "type": "uint256"
            },
            {
              "internalType": "address payable",
              "name": "owner",
              "type": "address"
            },
            {
              "internalType": "address payable",
              "name": "contestant",
              "type": "address"
            }
          ],
          "indexed": false,
          "internalType": "struct ETHServices.Service",
          "name": "service",
          "type": "tuple"
        }
      ],
      "name": "serviceDeposited",
      "type": "event"
    },
    {
      "anonymous": false,
      "inputs": [
        {
          "indexed": false,
          "internalType": "address",
          "name": "owner",
          "type": "address"
        },
        {
          "components": [
            {
              "internalType": "string",
              "name": "description",
              "type": "string"
            },
            {
              "internalType": "string",
              "name": "title",
              "type": "string"
            },
            {
              "internalType": "uint256",
              "name": "amount",
              "type": "uint256"
            },
            {
              "internalType": "address payable",
              "name": "owner",
              "type": "address"
            },
            {
              "internalType": "address payable",
              "name": "contestant",
              "type": "address"
            }
          ],
          "indexed": false,
          "internalType": "struct ETHServices.Service",
          "name": "service",
          "type": "tuple"
        }
      ],
      "name": "serviceWithdrawn",
      "type": "event"
    },
    {
      "inputs": [
        {
          "internalType": "uint256",
          "name": "",
          "type": "uint256"
        }
      ],
      "name": "depositedAddresses",
      "outputs": [
        {
          "internalType": "address",
          "name": "",
          "type": "address"
        }
      ],
      "stateMutability": "view",
      "type": "function",
      "constant": true
    },
    {
      "inputs": [],
      "name": "feeCollected",
      "outputs": [
        {
          "internalType": "uint256",
          "name": "",
          "type": "uint256"
        }
      ],
      "stateMutability": "view",
      "type": "function",
      "constant": true
    },
    {
      "inputs": [],
      "name": "owner",
      "outputs": [
        {
          "internalType": "address",
          "name": "",
          "type": "address"
        }
      ],
      "stateMutability": "view",
      "type": "function",
      "constant": true
    },
    {
      "inputs": [],
      "name": "renounceOwnership",
      "outputs": [],
      "stateMutability": "nonpayable",
      "type": "function"
    },
    {
      "inputs": [
        {
          "internalType": "address",
          "name": "",
          "type": "address"
        }
      ],
      "name": "services",
      "outputs": [
        {
          "internalType": "string",
          "name": "description",
          "type": "string"
        },
        {
          "internalType": "string",
          "name": "title",
          "type": "string"
        },
        {
          "internalType": "uint256",
          "name": "amount",
          "type": "uint256"
        },
        {
          "internalType": "address payable",
          "name": "owner",
          "type": "address"
        },
        {
          "internalType": "address payable",
          "name": "contestant",
          "type": "address"
        }
      ],
      "stateMutability": "view",
      "type": "function",
      "constant": true
    },
    {
      "inputs": [
        {
          "internalType": "address",
          "name": "newOwner",
          "type": "address"
        }
      ],
      "name": "transferOwnership",
      "outputs": [],
      "stateMutability": "nonpayable",
      "type": "function"
    },
    {
      "stateMutability": "payable",
      "type": "receive",
      "payable": true
    },
    {
      "inputs": [
        {
          "internalType": "address",
          "name": "_service",
          "type": "address"
        }
      ],
      "name": "setContestant",
      "outputs": [],
      "stateMutability": "nonpayable",
      "type": "function"
    },
    {
      "inputs": [
        {
          "internalType": "address",
          "name": "_service",
          "type": "address"
        }
      ],
      "name": "revokeContestant",
      "outputs": [],
      "stateMutability": "nonpayable",
      "type": "function"
    },
    {
      "inputs": [
        {
          "internalType": "string",
          "name": "title",
          "type": "string"
        },
        {
          "internalType": "string",
          "name": "description",
          "type": "string"
        }
      ],
      "name": "submit",
      "outputs": [],
      "stateMutability": "payable",
      "type": "function",
      "payable": true
    },
    {
      "inputs": [
        {
          "internalType": "address",
          "name": "_service",
          "type": "address"
        }
      ],
      "name": "accept",
      "outputs": [],
      "stateMutability": "nonpayable",
      "type": "function"
    },
    {
      "inputs": [
        {
          "internalType": "address",
          "name": "_service",
          "type": "address"
        }
      ],
      "name": "cancel",
      "outputs": [],
      "stateMutability": "nonpayable",
      "type": "function"
    },
    {
      "inputs": [],
      "name": "getDepositedAddresses",
      "outputs": [
        {
          "internalType": "address[]",
          "name": "",
          "type": "address[]"
        }
      ],
      "stateMutability": "view",
      "type": "function",
      "constant": true
    }
  ],
  "bytecode": "0x608060405234801561001057600080fd5b5061002d61002261003260201b60201c565b61003a60201b60201c565b6100fe565b600033905090565b60008060009054906101000a900473ffffffffffffffffffffffffffffffffffffffff169050816000806101000a81548173ffffffffffffffffffffffffffffffffffffffff021916908373ffffffffffffffffffffffffffffffffffffffff1602179055508173ffffffffffffffffffffffffffffffffffffffff168173ffffffffffffffffffffffffffffffffffffffff167f8be0079c531659141344cd1fd0a4f28419497f9722a3daafe3b4186f6b6457e060405160405180910390a35050565b61233c806200010e6000396000f3fe6080604052600436106100ab5760003560e01c80638ab34bed116100645780638ab34bed146101c95780638da5cb5b146101f45780639f0059201461021f578063a2387ea314610248578063baba65a114610264578063f2fde38b1461028d576100b2565b80630a94ffc2146100b75780634c33fe94146100f457806350aa8d251461011d5780636ca7f95c146101465780636d966d0114610171578063715018a6146101b2576100b2565b366100b257005b600080fd5b3480156100c357600080fd5b506100de60048036038101906100d9919061173d565b6102b6565b6040516100eb91906117ab565b60405180910390f35b34801561010057600080fd5b5061011b600480360381019061011691906117f2565b6102f5565b005b34801561012957600080fd5b50610144600480360381019061013f91906117f2565b6106ec565b005b34801561015257600080fd5b5061015b610841565b604051610168919061182e565b60405180910390f35b34801561017d57600080fd5b50610198600480360381019061019391906117f2565b610847565b6040516101a9959493929190611903565b60405180910390f35b3480156101be57600080fd5b506101c76109cd565b005b3480156101d557600080fd5b506101de6109e1565b6040516101eb9190611a22565b60405180910390f35b34801561020057600080fd5b50610209610a6f565b60405161021691906117ab565b60405180910390f35b34801561022b57600080fd5b50610246600480360381019061024191906117f2565b610a98565b005b610262600480360381019061025d9190611aa9565b610f8c565b005b34801561027057600080fd5b5061028b600480360381019061028691906117f2565b6112a0565b005b34801561029957600080fd5b506102b460048036038101906102af91906117f2565b61148d565b005b600381815481106102c657600080fd5b906000526020600020016000915054906101000a900473ffffffffffffffffffffffffffffffffffffffff1681565b6000600160008373ffffffffffffffffffffffffffffffffffffffff1673ffffffffffffffffffffffffffffffffffffffff168152602001908152602001600020600201541161037a576040517f08c379a000000000000000000000000000000000000000000000000000000000815260040161037190611b76565b60405180910390fd5b600160008273ffffffffffffffffffffffffffffffffffffffff1673ffffffffffffffffffffffffffffffffffffffff16815260200190815260200160002060030160009054906101000a900473ffffffffffffffffffffffffffffffffffffffff1673ffffffffffffffffffffffffffffffffffffffff163373ffffffffffffffffffffffffffffffffffffffff161461041457600080fd5b8073ffffffffffffffffffffffffffffffffffffffff166108fc600160008473ffffffffffffffffffffffffffffffffffffffff1673ffffffffffffffffffffffffffffffffffffffff168152602001908152602001600020600201549081150290604051600060405180830381858888f1935050505015801561049c573d6000803e3d6000fd5b507fe72e3dd95aba53ef21ae5523739b843bf1fcd37347387422fcdd06d4d2ba193433600160003373ffffffffffffffffffffffffffffffffffffffff1673ffffffffffffffffffffffffffffffffffffffff16815260200190815260200160002060405161050c929190611dc3565b60405180910390a16000600160008373ffffffffffffffffffffffffffffffffffffffff1673ffffffffffffffffffffffffffffffffffffffff1681526020019081526020016000206002018190555060005b6003805490508110156106e8578173ffffffffffffffffffffffffffffffffffffffff166003828154811061059757610596611df3565b5b9060005260206000200160009054906101000a900473ffffffffffffffffffffffffffffffffffffffff1673ffffffffffffffffffffffffffffffffffffffff16036106d557600360016003805490506105f19190611e51565b8154811061060257610601611df3565b5b9060005260206000200160009054906101000a900473ffffffffffffffffffffffffffffffffffffffff166003828154811061064157610640611df3565b5b9060005260206000200160006101000a81548173ffffffffffffffffffffffffffffffffffffffff021916908373ffffffffffffffffffffffffffffffffffffffff160217905550600380548061069b5761069a611e85565b5b6001900381819060005260206000200160006101000a81549073ffffffffffffffffffffffffffffffffffffffff021916905590556106e8565b80806106e090611eb4565b91505061055f565b5050565b600073ffffffffffffffffffffffffffffffffffffffff16600160008373ffffffffffffffffffffffffffffffffffffffff1673ffffffffffffffffffffffffffffffffffffffff16815260200190815260200160002060040160009054906101000a900473ffffffffffffffffffffffffffffffffffffffff1673ffffffffffffffffffffffffffffffffffffffff16146107bd576040517f08c379a00000000000000000000000000000000000000000000000000000000081526004016107b490611f48565b60405180910390fd5b33600160008373ffffffffffffffffffffffffffffffffffffffff1673ffffffffffffffffffffffffffffffffffffffff16815260200190815260200160002060040160006101000a81548173ffffffffffffffffffffffffffffffffffffffff021916908373ffffffffffffffffffffffffffffffffffffffff16021790555050565b60025481565b600160205280600052604060002060009150905080600001805461086a90611bc5565b80601f016020809104026020016040519081016040528092919081815260200182805461089690611bc5565b80156108e35780601f106108b8576101008083540402835291602001916108e3565b820191906000526020600020905b8154815290600101906020018083116108c657829003601f168201915b5050505050908060010180546108f890611bc5565b80601f016020809104026020016040519081016040528092919081815260200182805461092490611bc5565b80156109715780601f1061094657610100808354040283529160200191610971565b820191906000526020600020905b81548152906001019060200180831161095457829003601f168201915b5050505050908060020154908060030160009054906101000a900473ffffffffffffffffffffffffffffffffffffffff16908060040160009054906101000a900473ffffffffffffffffffffffffffffffffffffffff16905085565b6109d5611510565b6109df600061158e565b565b60606003805480602002602001604051908101604052809291908181526020018280548015610a6557602002820191906000526020600020905b8160009054906101000a900473ffffffffffffffffffffffffffffffffffffffff1673ffffffffffffffffffffffffffffffffffffffff1681526020019060010190808311610a1b575b5050505050905090565b60008060009054906101000a900473ffffffffffffffffffffffffffffffffffffffff16905090565b6000600160008373ffffffffffffffffffffffffffffffffffffffff1673ffffffffffffffffffffffffffffffffffffffff1681526020019081526020016000206002015411610b1d576040517f08c379a0000000000000000000000000000000000000000000000000000000008152600401610b1490611fda565b60405180910390fd5b600073ffffffffffffffffffffffffffffffffffffffff16600160008373ffffffffffffffffffffffffffffffffffffffff1673ffffffffffffffffffffffffffffffffffffffff16815260200190815260200160002060040160009054906101000a900473ffffffffffffffffffffffffffffffffffffffff1673ffffffffffffffffffffffffffffffffffffffff1603610bb857600080fd5b600160008273ffffffffffffffffffffffffffffffffffffffff1673ffffffffffffffffffffffffffffffffffffffff16815260200190815260200160002060030160009054906101000a900473ffffffffffffffffffffffffffffffffffffffff1673ffffffffffffffffffffffffffffffffffffffff163373ffffffffffffffffffffffffffffffffffffffff1614610c5257600080fd5b600160008273ffffffffffffffffffffffffffffffffffffffff1673ffffffffffffffffffffffffffffffffffffffff16815260200190815260200160002060040160009054906101000a900473ffffffffffffffffffffffffffffffffffffffff1673ffffffffffffffffffffffffffffffffffffffff166108fc600160008473ffffffffffffffffffffffffffffffffffffffff1673ffffffffffffffffffffffffffffffffffffffff168152602001908152602001600020600201549081150290604051600060405180830381858888f19350505050158015610d3c573d6000803e3d6000fd5b507fe72e3dd95aba53ef21ae5523739b843bf1fcd37347387422fcdd06d4d2ba193433600160008473ffffffffffffffffffffffffffffffffffffffff1673ffffffffffffffffffffffffffffffffffffffff168152602001908152602001600020604051610dac929190611dc3565b60405180910390a16000600160008373ffffffffffffffffffffffffffffffffffffffff1673ffffffffffffffffffffffffffffffffffffffff1681526020019081526020016000206002018190555060005b600380549050811015610f88578173ffffffffffffffffffffffffffffffffffffffff1660038281548110610e3757610e36611df3565b5b9060005260206000200160009054906101000a900473ffffffffffffffffffffffffffffffffffffffff1673ffffffffffffffffffffffffffffffffffffffff1603610f755760036001600380549050610e919190611e51565b81548110610ea257610ea1611df3565b5b9060005260206000200160009054906101000a900473ffffffffffffffffffffffffffffffffffffffff1660038281548110610ee157610ee0611df3565b5b9060005260206000200160006101000a81548173ffffffffffffffffffffffffffffffffffffffff021916908373ffffffffffffffffffffffffffffffffffffffff1602179055506003805480610f3b57610f3a611e85565b5b6001900381819060005260206000200160006101000a81549073ffffffffffffffffffffffffffffffffffffffff02191690559055610f88565b8080610f8090611eb4565b915050610dff565b5050565b6000600160003373ffffffffffffffffffffffffffffffffffffffff1673ffffffffffffffffffffffffffffffffffffffff1681526020019081526020016000206002015414611011576040517f08c379a00000000000000000000000000000000000000000000000000000000081526004016110089061206c565b60405180910390fd5b33600160003373ffffffffffffffffffffffffffffffffffffffff1673ffffffffffffffffffffffffffffffffffffffff16815260200190815260200160002060030160006101000a81548173ffffffffffffffffffffffffffffffffffffffff021916908373ffffffffffffffffffffffffffffffffffffffff1602179055508383600160003373ffffffffffffffffffffffffffffffffffffffff1673ffffffffffffffffffffffffffffffffffffffff16815260200190815260200160002060010191906110e392919061165a565b508181600160003373ffffffffffffffffffffffffffffffffffffffff1673ffffffffffffffffffffffffffffffffffffffff168152602001908152602001600020600001919061113592919061165a565b5060006103e8600134611148919061208c565b6111529190612115565b905080600260008282546111669190612146565b9250508190555080346111799190611e51565b600160003373ffffffffffffffffffffffffffffffffffffffff1673ffffffffffffffffffffffffffffffffffffffff168152602001908152602001600020600201819055506003339080600181540180825580915050600190039060005260206000200160009091909190916101000a81548173ffffffffffffffffffffffffffffffffffffffff021916908373ffffffffffffffffffffffffffffffffffffffff1602179055507f2bdde941012752473daac690de54efb4e7c0eeab1f94910e759296414c48be0033600160003373ffffffffffffffffffffffffffffffffffffffff1673ffffffffffffffffffffffffffffffffffffffff168152602001908152602001600020604051611291929190611dc3565b60405180910390a15050505050565b3373ffffffffffffffffffffffffffffffffffffffff16600160008373ffffffffffffffffffffffffffffffffffffffff1673ffffffffffffffffffffffffffffffffffffffff16815260200190815260200160002060030160009054906101000a900473ffffffffffffffffffffffffffffffffffffffff1673ffffffffffffffffffffffffffffffffffffffff1614806113c957503373ffffffffffffffffffffffffffffffffffffffff16600160008373ffffffffffffffffffffffffffffffffffffffff1673ffffffffffffffffffffffffffffffffffffffff16815260200190815260200160002060040160009054906101000a900473ffffffffffffffffffffffffffffffffffffffff1673ffffffffffffffffffffffffffffffffffffffff16145b611408576040517f08c379a00000000000000000000000000000000000000000000000000000000081526004016113ff906121e8565b60405180910390fd5b6000600160008373ffffffffffffffffffffffffffffffffffffffff1673ffffffffffffffffffffffffffffffffffffffff16815260200190815260200160002060040160006101000a81548173ffffffffffffffffffffffffffffffffffffffff021916908373ffffffffffffffffffffffffffffffffffffffff16021790555050565b611495611510565b600073ffffffffffffffffffffffffffffffffffffffff168173ffffffffffffffffffffffffffffffffffffffff1603611504576040517f08c379a00000000000000000000000000000000000000000000000000000000081526004016114fb9061227a565b60405180910390fd5b61150d8161158e565b50565b611518611652565b73ffffffffffffffffffffffffffffffffffffffff16611536610a6f565b73ffffffffffffffffffffffffffffffffffffffff161461158c576040517f08c379a0000000000000000000000000000000000000000000000000000000008152600401611583906122e6565b60405180910390fd5b565b60008060009054906101000a900473ffffffffffffffffffffffffffffffffffffffff169050816000806101000a81548173ffffffffffffffffffffffffffffffffffffffff021916908373ffffffffffffffffffffffffffffffffffffffff1602179055508173ffffffffffffffffffffffffffffffffffffffff168173ffffffffffffffffffffffffffffffffffffffff167f8be0079c531659141344cd1fd0a4f28419497f9722a3daafe3b4186f6b6457e060405160405180910390a35050565b600033905090565b82805461166690611bc5565b90600052602060002090601f01602090048101928261168857600085556116cf565b82601f106116a157803560ff19168380011785556116cf565b828001600101855582156116cf579182015b828111156116ce5782358255916020019190600101906116b3565b5b5090506116dc91906116e0565b5090565b5b808211156116f95760008160009055506001016116e1565b5090565b600080fd5b600080fd5b6000819050919050565b61171a81611707565b811461172557600080fd5b50565b60008135905061173781611711565b92915050565b600060208284031215611753576117526116fd565b5b600061176184828501611728565b91505092915050565b600073ffffffffffffffffffffffffffffffffffffffff82169050919050565b60006117958261176a565b9050919050565b6117a58161178a565b82525050565b60006020820190506117c0600083018461179c565b92915050565b6117cf8161178a565b81146117da57600080fd5b50565b6000813590506117ec816117c6565b92915050565b600060208284031215611808576118076116fd565b5b6000611816848285016117dd565b91505092915050565b61182881611707565b82525050565b6000602082019050611843600083018461181f565b92915050565b600081519050919050565b600082825260208201905092915050565b60005b83811015611883578082015181840152602081019050611868565b83811115611892576000848401525b50505050565b6000601f19601f8301169050919050565b60006118b482611849565b6118be8185611854565b93506118ce818560208601611865565b6118d781611898565b840191505092915050565b60006118ed8261176a565b9050919050565b6118fd816118e2565b82525050565b600060a082019050818103600083015261191d81886118a9565b9050818103602083015261193181876118a9565b9050611940604083018661181f565b61194d60608301856118f4565b61195a60808301846118f4565b9695505050505050565b600081519050919050565b600082825260208201905092915050565b6000819050602082019050919050565b6119998161178a565b82525050565b60006119ab8383611990565b60208301905092915050565b6000602082019050919050565b60006119cf82611964565b6119d9818561196f565b93506119e483611980565b8060005b83811015611a155781516119fc888261199f565b9750611a07836119b7565b9250506001810190506119e8565b5085935050505092915050565b60006020820190508181036000830152611a3c81846119c4565b905092915050565b600080fd5b600080fd5b600080fd5b60008083601f840112611a6957611a68611a44565b5b8235905067ffffffffffffffff811115611a8657611a85611a49565b5b602083019150836001820283011115611aa257611aa1611a4e565b5b9250929050565b60008060008060408587031215611ac357611ac26116fd565b5b600085013567ffffffffffffffff811115611ae157611ae0611702565b5b611aed87828801611a53565b9450945050602085013567ffffffffffffffff811115611b1057611b0f611702565b5b611b1c87828801611a53565b925092505092959194509250565b7f4e6f204163746976652053657276696365000000000000000000000000000000600082015250565b6000611b60601183611854565b9150611b6b82611b2a565b602082019050919050565b60006020820190508181036000830152611b8f81611b53565b9050919050565b7f4e487b7100000000000000000000000000000000000000000000000000000000600052602260045260246000fd5b60006002820490506001821680611bdd57607f821691505b602082108103611bf057611bef611b96565b5b50919050565b600082825260208201905092915050565b60008190508160005260206000209050919050565b60008154611c2981611bc5565b611c338186611bf6565b94506001821660008114611c4e5760018114611c6057611c93565b60ff1983168652602086019350611c93565b611c6985611c07565b60005b83811015611c8b57815481890152600182019150602081019050611c6c565b808801955050505b50505092915050565b60008160001c9050919050565b6000819050919050565b6000611cc6611cc183611c9c565b611ca9565b9050919050565b611cd681611707565b82525050565b600073ffffffffffffffffffffffffffffffffffffffff82169050919050565b6000611d0f611d0a83611c9c565b611cdc565b9050919050565b611d1f816118e2565b82525050565b600060a0830160008084018583036000870152611d428382611c1c565b925050600184018583036020870152611d5b8382611c1c565b92505060028401549050611d6e81611cb3565b611d7b6040870182611ccd565b5060038401549050611d8c81611cfc565b611d996060870182611d16565b5060048401549050611daa81611cfc565b611db76080870182611d16565b50819250505092915050565b6000604082019050611dd8600083018561179c565b8181036020830152611dea8184611d25565b90509392505050565b7f4e487b7100000000000000000000000000000000000000000000000000000000600052603260045260246000fd5b7f4e487b7100000000000000000000000000000000000000000000000000000000600052601160045260246000fd5b6000611e5c82611707565b9150611e6783611707565b925082821015611e7a57611e79611e22565b5b828203905092915050565b7f4e487b7100000000000000000000000000000000000000000000000000000000600052603160045260246000fd5b6000611ebf82611707565b91507fffffffffffffffffffffffffffffffffffffffffffffffffffffffffffffffff8203611ef157611ef0611e22565b5b600182019050919050565b7f636f6e74657374616e74206e6f74206e756c6c00000000000000000000000000600082015250565b6000611f32601383611854565b9150611f3d82611efc565b602082019050919050565b60006020820190508181036000830152611f6181611f25565b9050919050565b7f496e73756666696369656e742062616c616e6365204f7220536572766963652060008201527f6e6f7420617661696c61626c6500000000000000000000000000000000000000602082015250565b6000611fc4602d83611854565b9150611fcf82611f68565b604082019050919050565b60006020820190508181036000830152611ff381611fb7565b9050919050565b7f5573657220616c72656164792068617320612070656e64696e6720736572766960008201527f6365000000000000000000000000000000000000000000000000000000000000602082015250565b6000612056602283611854565b915061206182611ffa565b604082019050919050565b6000602082019050818103600083015261208581612049565b9050919050565b600061209782611707565b91506120a283611707565b9250817fffffffffffffffffffffffffffffffffffffffffffffffffffffffffffffffff04831182151516156120db576120da611e22565b5b828202905092915050565b7f4e487b7100000000000000000000000000000000000000000000000000000000600052601260045260246000fd5b600061212082611707565b915061212b83611707565b92508261213b5761213a6120e6565b5b828204905092915050565b600061215182611707565b915061215c83611707565b9250827fffffffffffffffffffffffffffffffffffffffffffffffffffffffffffffffff0382111561219157612190611e22565b5b828201905092915050565b7f4f7065726174696f6e20466f7262696464656e00000000000000000000000000600082015250565b60006121d2601383611854565b91506121dd8261219c565b602082019050919050565b60006020820190508181036000830152612201816121c5565b9050919050565b7f4f776e61626c653a206e6577206f776e657220697320746865207a65726f206160008201527f6464726573730000000000000000000000000000000000000000000000000000602082015250565b6000612264602683611854565b915061226f82612208565b604082019050919050565b6000602082019050818103600083015261229381612257565b9050919050565b7f4f776e61626c653a2063616c6c6572206973206e6f7420746865206f776e6572600082015250565b60006122d0602083611854565b91506122db8261229a565b602082019050919050565b600060208201905081810360008301526122ff816122c3565b905091905056fea264697066735822122007f3f8ce5cf2ea97c55668366f41db0cbf694fd8472db64e4c3786ca6bb3007864736f6c634300080d0033",
  "immutableReferences": {},
  "source": "// SPDX-License-Identifier: MIT\npragma solidity ^0.8.13;\n\nimport \"@openzeppelin/contracts/access/Ownable.sol\";\n\ncontract ETHServices is Ownable {\n    struct Service {\n        string description;\n        string title;\n        uint256 amount;\n        address payable owner;\n        address payable contestant;\n    }\n\n    mapping(address => Service) public services;\n\n    uint256 public feeCollected;\n\n    address[] public depositedAddresses;\n\n    event serviceDeposited(address owner, Service service);\n\n    event serviceWithdrawn(address owner, Service service);\n\n    function setContestant(address _service) external {\n        require(services[_service].contestant == address(0), \"contestant not null\");\n        services[_service].contestant = payable(msg.sender);\n    }\n\n    function revokeContestant(address _service) external {\n        require(services[_service].owner == msg.sender || services[_service].contestant == msg.sender, \"Operation Forbidden\");\n        services[_service].contestant = payable(address(0));\n    }\n\n    function submit(string calldata title, string calldata description)\n        external\n        payable\n    {\n        require(\n            services[msg.sender].amount == 0,\n            \"User already has a pending service\"\n        );\n        services[msg.sender].owner = payable(msg.sender);\n        services[msg.sender].title = title;\n        services[msg.sender].description = description;\n        uint256 feeAmount = (msg.value * 1) / 1000;\n        feeCollected += feeAmount;\n        services[msg.sender].amount = msg.value - feeAmount;\n        depositedAddresses.push(msg.sender);\n        emit serviceDeposited(msg.sender, services[msg.sender]);\n    }\n\n    function accept(address _service) external {\n        require(\n            services[_service].amount > 0,\n            \"Insufficient balance Or Service not available\"\n        );\n        require(services[_service].contestant != address(0));\n        require(msg.sender == services[_service].owner);\n        payable(services[_service].contestant).transfer(services[_service].amount);\n        emit serviceWithdrawn(msg.sender, services[_service]);\n        services[_service].amount = 0;\n        // Remove the address from the depositedAddresses array\n        for (uint256 i = 0; i < depositedAddresses.length; i++) {\n            if (depositedAddresses[i] == _service) {\n                depositedAddresses[i] = depositedAddresses[\n                    depositedAddresses.length - 1\n                ];\n                depositedAddresses.pop();\n                break;\n            }\n        }\n    }\n\n    function cancel(address _service) external {\n        require(services[_service].amount > 0, \"No Active Service\");\n        require(msg.sender == services[_service].owner);\n        payable(_service).transfer(services[_service].amount);\n        emit serviceWithdrawn(msg.sender, services[msg.sender]);\n        services[_service].amount = 0;\n        // Remove the address from the depositedAddresses array\n        for (uint256 i = 0; i < depositedAddresses.length; i++) {\n            if (depositedAddresses[i] == _service) {\n                depositedAddresses[i] = depositedAddresses[\n                    depositedAddresses.length - 1\n                ];\n                depositedAddresses.pop();\n                break;\n            }\n        }\n    }\n\n    function getDepositedAddresses() public view returns (address[] memory) {\n        return depositedAddresses;\n    }\n\n    receive() external payable {}\n}\n",
  "sourcePath": "/Users/heidialbarazi/Desktop/hackathons/ethmunich/ethmunich/backend/contracts/ETHServices.sol",
  "compiler": {
    "name": "solc",
    "version": "0.8.13+commit.abaa5c0e.Emscripten.clang"
  },
  "schemaVersion": "3.4.15",
  "updatedAt": "2023-08-13T06:09:38.658Z",
  "networkType": "ethereum",
  "devdoc": {
    "kind": "dev",
    "methods": {
      "owner()": {
        "details": "Returns the address of the current owner."
      },
      "renounceOwnership()": {
        "details": "Leaves the contract without owner. It will not be possible to call `onlyOwner` functions. Can only be called by the current owner. NOTE: Renouncing ownership will leave the contract without an owner, thereby disabling any functionality that is only available to the owner."
      },
      "transferOwnership(address)": {
        "details": "Transfers ownership of the contract to a new account (`newOwner`). Can only be called by the current owner."
      }
    },
    "version": 1
  },
  "userdoc": {
    "kind": "user",
    "methods": {},
    "version": 1
  }
}