{
  "contractName": "KarmaToken",
  "abi": [
    {
      "inputs": [],
      "stateMutability": "nonpayable",
      "type": "constructor"
    },
    {
      "anonymous": false,
      "inputs": [
        {
          "indexed": true,
          "internalType": "address",
          "name": "owner",
          "type": "address"
        },
        {
          "indexed": true,
          "internalType": "address",
          "name": "spender",
          "type": "address"
        },
        {
          "indexed": false,
          "internalType": "uint256",
          "name": "value",
          "type": "uint256"
        }
      ],
      "name": "Approval",
      "type": "event"
    },
    {
      "anonymous": false,
      "inputs": [
        {
          "indexed": true,
          "internalType": "address",
          "name": "from",
          "type": "address"
        },
        {
          "indexed": true,
          "internalType": "address",
          "name": "to",
          "type": "address"
        },
        {
          "indexed": false,
          "internalType": "uint256",
          "name": "value",
          "type": "uint256"
        }
      ],
      "name": "Transfer",
      "type": "event"
    },
    {
      "inputs": [
        {
          "internalType": "address",
          "name": "owner",
          "type": "address"
        },
        {
          "internalType": "address",
          "name": "spender",
          "type": "address"
        }
      ],
      "name": "allowance",
      "outputs": [
        {
          "internalType": "uint256",
          "name": "",
          "type": "uint256"
        }
      ],
      "stateMutability": "view",
      "type": "function",
      "constant": true
    },
    {
      "inputs": [
        {
          "internalType": "address",
          "name": "spender",
          "type": "address"
        },
        {
          "internalType": "uint256",
          "name": "amount",
          "type": "uint256"
        }
      ],
      "name": "approve",
      "outputs": [
        {
          "internalType": "bool",
          "name": "",
          "type": "bool"
        }
      ],
      "stateMutability": "nonpayable",
      "type": "function"
    },
    {
      "inputs": [
        {
          "internalType": "address",
          "name": "account",
          "type": "address"
        }
      ],
      "name": "balanceOf",
      "outputs": [
        {
          "internalType": "uint256",
          "name": "",
          "type": "uint256"
        }
      ],
      "stateMutability": "view",
      "type": "function",
      "constant": true
    },
    {
      "inputs": [],
      "name": "decimals",
      "outputs": [
        {
          "internalType": "uint8",
          "name": "",
          "type": "uint8"
        }
      ],
      "stateMutability": "view",
      "type": "function",
      "constant": true
    },
    {
      "inputs": [
        {
          "internalType": "address",
          "name": "spender",
          "type": "address"
        },
        {
          "internalType": "uint256",
          "name": "subtractedValue",
          "type": "uint256"
        }
      ],
      "name": "decreaseAllowance",
      "outputs": [
        {
          "internalType": "bool",
          "name": "",
          "type": "bool"
        }
      ],
      "stateMutability": "nonpayable",
      "type": "function"
    },
    {
      "inputs": [],
      "name": "exchangeRate",
      "outputs": [
        {
          "internalType": "uint256",
          "name": "",
          "type": "uint256"
        }
      ],
      "stateMutability": "view",
      "type": "function",
      "constant": true
    },
    {
      "inputs": [
        {
          "internalType": "address",
          "name": "spender",
          "type": "address"
        },
        {
          "internalType": "uint256",
          "name": "addedValue",
          "type": "uint256"
        }
      ],
      "name": "increaseAllowance",
      "outputs": [
        {
          "internalType": "bool",
          "name": "",
          "type": "bool"
        }
      ],
      "stateMutability": "nonpayable",
      "type": "function"
    },
    {
      "inputs": [],
      "name": "name",
      "outputs": [
        {
          "internalType": "string",
          "name": "",
          "type": "string"
        }
      ],
      "stateMutability": "view",
      "type": "function",
      "constant": true
    },
    {
      "inputs": [],
      "name": "symbol",
      "outputs": [
        {
          "internalType": "string",
          "name": "",
          "type": "string"
        }
      ],
      "stateMutability": "view",
      "type": "function",
      "constant": true
    },
    {
      "inputs": [],
      "name": "totalSupply",
      "outputs": [
        {
          "internalType": "uint256",
          "name": "",
          "type": "uint256"
        }
      ],
      "stateMutability": "view",
      "type": "function",
      "constant": true
    },
    {
      "inputs": [
        {
          "internalType": "address",
          "name": "to",
          "type": "address"
        },
        {
          "internalType": "uint256",
          "name": "amount",
          "type": "uint256"
        }
      ],
      "name": "transfer",
      "outputs": [
        {
          "internalType": "bool",
          "name": "",
          "type": "bool"
        }
      ],
      "stateMutability": "nonpayable",
      "type": "function"
    },
    {
      "inputs": [
        {
          "internalType": "address",
          "name": "from",
          "type": "address"
        },
        {
          "internalType": "address",
          "name": "to",
          "type": "address"
        },
        {
          "internalType": "uint256",
          "name": "amount",
          "type": "uint256"
        }
      ],
      "name": "transferFrom",
      "outputs": [
        {
          "internalType": "bool",
          "name": "",
          "type": "bool"
        }
      ],
      "stateMutability": "nonpayable",
      "type": "function"
    },
    {
      "stateMutability": "payable",
      "type": "receive",
      "payable": true
    },
    {
      "inputs": [],
      "name": "mintTokens",
      "outputs": [],
      "stateMutability": "payable",
      "type": "function",
      "payable": true
    },
    {
      "inputs": [
        {
          "internalType": "uint256",
          "name": "_tokensToExchange",
          "type": "uint256"
        }
      ],
      "name": "exchangeTokens",
      "outputs": [],
      "stateMutability": "nonpayable",
      "type": "function"
    }
  ],
  "bytecode": "0x60806040526103e86005553480156200001757600080fd5b506040518060400160405280600a81526020017f4b61726d61546f6b656e000000000000000000000000000000000000000000008152506040518060400160405280600381526020017f4b524d000000000000000000000000000000000000000000000000000000000081525081600390805190602001906200009c929190620000be565b508060049080519060200190620000b5929190620000be565b505050620001d2565b828054620000cc906200019d565b90600052602060002090601f016020900481019282620000f057600085556200013c565b82601f106200010b57805160ff19168380011785556200013c565b828001600101855582156200013c579182015b828111156200013b5782518255916020019190600101906200011e565b5b5090506200014b91906200014f565b5090565b5b808211156200016a57600081600090555060010162000150565b5090565b7f4e487b7100000000000000000000000000000000000000000000000000000000600052602260045260246000fd5b60006002820490506001821680620001b657607f821691505b602082108103620001cc57620001cb6200016e565b5b50919050565b611bc180620001e26000396000f3fe6080604052600436106100e15760003560e01c8063404771261161007f578063a457c2d711610059578063a457c2d7146102e1578063a9059cbb1461031e578063dd62ed3e1461035b578063eeb9635c14610398576100e8565b8063404771261461025057806370a082311461027957806395d89b41146102b6576100e8565b806323b872dd116100bb57806323b872dd14610180578063313ce567146101bd57806339509351146101e85780633ba0b9a914610225576100e8565b806306fdde03146100ed578063095ea7b31461011857806318160ddd14610155576100e8565b366100e857005b600080fd5b3480156100f957600080fd5b506101026103a2565b60405161010f91906110c1565b60405180910390f35b34801561012457600080fd5b5061013f600480360381019061013a919061117c565b610434565b60405161014c91906111d7565b60405180910390f35b34801561016157600080fd5b5061016a610457565b6040516101779190611201565b60405180910390f35b34801561018c57600080fd5b506101a760048036038101906101a2919061121c565b610461565b6040516101b491906111d7565b60405180910390f35b3480156101c957600080fd5b506101d2610490565b6040516101df919061128b565b60405180910390f35b3480156101f457600080fd5b5061020f600480360381019061020a919061117c565b610499565b60405161021c91906111d7565b60405180910390f35b34801561023157600080fd5b5061023a6104d0565b6040516102479190611201565b60405180910390f35b34801561025c57600080fd5b50610277600480360381019061027291906112a6565b6104d6565b005b34801561028557600080fd5b506102a0600480360381019061029b91906112d3565b61060e565b6040516102ad9190611201565b60405180910390f35b3480156102c257600080fd5b506102cb610656565b6040516102d891906110c1565b60405180910390f35b3480156102ed57600080fd5b506103086004803603810190610303919061117c565b6106e8565b60405161031591906111d7565b60405180910390f35b34801561032a57600080fd5b506103456004803603810190610340919061117c565b61075f565b60405161035291906111d7565b60405180910390f35b34801561036757600080fd5b50610382600480360381019061037d9190611300565b610782565b60405161038f9190611201565b60405180910390f35b6103a0610809565b005b6060600380546103b19061136f565b80601f01602080910402602001604051908101604052809291908181526020018280546103dd9061136f565b801561042a5780601f106103ff5761010080835404028352916020019161042a565b820191906000526020600020905b81548152906001019060200180831161040d57829003601f168201915b5050505050905090565b60008061043f610828565b905061044c818585610830565b600191505092915050565b6000600254905090565b60008061046c610828565b90506104798582856109f9565b610484858585610a85565b60019150509392505050565b60006012905090565b6000806104a4610828565b90506104c58185856104b68589610782565b6104c091906113cf565b610830565b600191505092915050565b60055481565b60008111610519576040517f08c379a000000000000000000000000000000000000000000000000000000000815260040161051090611471565b60405180910390fd5b806105233361060e565b1015610564576040517f08c379a000000000000000000000000000000000000000000000000000000000815260040161055b906114dd565b60405180910390fd5b600060055482610574919061152c565b9050804710156105b9576040517f08c379a00000000000000000000000000000000000000000000000000000000081526004016105b0906115a9565b60405180910390fd5b6105c33383610cfb565b3373ffffffffffffffffffffffffffffffffffffffff166108fc829081150290604051600060405180830381858888f19350505050158015610609573d6000803e3d6000fd5b505050565b60008060008373ffffffffffffffffffffffffffffffffffffffff1673ffffffffffffffffffffffffffffffffffffffff168152602001908152602001600020549050919050565b6060600480546106659061136f565b80601f01602080910402602001604051908101604052809291908181526020018280546106919061136f565b80156106de5780601f106106b3576101008083540402835291602001916106de565b820191906000526020600020905b8154815290600101906020018083116106c157829003601f168201915b5050505050905090565b6000806106f3610828565b905060006107018286610782565b905083811015610746576040517f08c379a000000000000000000000000000000000000000000000000000000000815260040161073d9061163b565b60405180910390fd5b6107538286868403610830565b60019250505092915050565b60008061076a610828565b9050610777818585610a85565b600191505092915050565b6000600160008473ffffffffffffffffffffffffffffffffffffffff1673ffffffffffffffffffffffffffffffffffffffff16815260200190815260200160002060008373ffffffffffffffffffffffffffffffffffffffff1673ffffffffffffffffffffffffffffffffffffffff16815260200190815260200160002054905092915050565b600060055434610819919061165b565b90506108253382610ec8565b50565b600033905090565b600073ffffffffffffffffffffffffffffffffffffffff168373ffffffffffffffffffffffffffffffffffffffff160361089f576040517f08c379a000000000000000000000000000000000000000000000000000000000815260040161089690611727565b60405180910390fd5b600073ffffffffffffffffffffffffffffffffffffffff168273ffffffffffffffffffffffffffffffffffffffff160361090e576040517f08c379a0000000000000000000000000000000000000000000000000000000008152600401610905906117b9565b60405180910390fd5b80600160008573ffffffffffffffffffffffffffffffffffffffff1673ffffffffffffffffffffffffffffffffffffffff16815260200190815260200160002060008473ffffffffffffffffffffffffffffffffffffffff1673ffffffffffffffffffffffffffffffffffffffff168152602001908152602001600020819055508173ffffffffffffffffffffffffffffffffffffffff168373ffffffffffffffffffffffffffffffffffffffff167f8c5be1e5ebec7d5bd14f71427d1e84f3dd0314c0f7b2291e5b200ac8c7c3b925836040516109ec9190611201565b60405180910390a3505050565b6000610a058484610782565b90507fffffffffffffffffffffffffffffffffffffffffffffffffffffffffffffffff8114610a7f5781811015610a71576040517f08c379a0000000000000000000000000000000000000000000000000000000008152600401610a6890611825565b60405180910390fd5b610a7e8484848403610830565b5b50505050565b600073ffffffffffffffffffffffffffffffffffffffff168373ffffffffffffffffffffffffffffffffffffffff1603610af4576040517f08c379a0000000000000000000000000000000000000000000000000000000008152600401610aeb906118b7565b60405180910390fd5b600073ffffffffffffffffffffffffffffffffffffffff168273ffffffffffffffffffffffffffffffffffffffff1603610b63576040517f08c379a0000000000000000000000000000000000000000000000000000000008152600401610b5a90611949565b60405180910390fd5b610b6e83838361101e565b60008060008573ffffffffffffffffffffffffffffffffffffffff1673ffffffffffffffffffffffffffffffffffffffff16815260200190815260200160002054905081811015610bf4576040517f08c379a0000000000000000000000000000000000000000000000000000000008152600401610beb906119db565b60405180910390fd5b8181036000808673ffffffffffffffffffffffffffffffffffffffff1673ffffffffffffffffffffffffffffffffffffffff16815260200190815260200160002081905550816000808573ffffffffffffffffffffffffffffffffffffffff1673ffffffffffffffffffffffffffffffffffffffff168152602001908152602001600020600082825401925050819055508273ffffffffffffffffffffffffffffffffffffffff168473ffffffffffffffffffffffffffffffffffffffff167fddf252ad1be2c89b69c2b068fc378daa952ba7f163c4a11628f55a4df523b3ef84604051610ce29190611201565b60405180910390a3610cf5848484611023565b50505050565b600073ffffffffffffffffffffffffffffffffffffffff168273ffffffffffffffffffffffffffffffffffffffff1603610d6a576040517f08c379a0000000000000000000000000000000000000000000000000000000008152600401610d6190611a6d565b60405180910390fd5b610d768260008361101e565b60008060008473ffffffffffffffffffffffffffffffffffffffff1673ffffffffffffffffffffffffffffffffffffffff16815260200190815260200160002054905081811015610dfc576040517f08c379a0000000000000000000000000000000000000000000000000000000008152600401610df390611aff565b60405180910390fd5b8181036000808573ffffffffffffffffffffffffffffffffffffffff1673ffffffffffffffffffffffffffffffffffffffff1681526020019081526020016000208190555081600260008282540392505081905550600073ffffffffffffffffffffffffffffffffffffffff168373ffffffffffffffffffffffffffffffffffffffff167fddf252ad1be2c89b69c2b068fc378daa952ba7f163c4a11628f55a4df523b3ef84604051610eaf9190611201565b60405180910390a3610ec383600084611023565b505050565b600073ffffffffffffffffffffffffffffffffffffffff168273ffffffffffffffffffffffffffffffffffffffff1603610f37576040517f08c379a0000000000000000000000000000000000000000000000000000000008152600401610f2e90611b6b565b60405180910390fd5b610f436000838361101e565b8060026000828254610f5591906113cf565b92505081905550806000808473ffffffffffffffffffffffffffffffffffffffff1673ffffffffffffffffffffffffffffffffffffffff168152602001908152602001600020600082825401925050819055508173ffffffffffffffffffffffffffffffffffffffff16600073ffffffffffffffffffffffffffffffffffffffff167fddf252ad1be2c89b69c2b068fc378daa952ba7f163c4a11628f55a4df523b3ef836040516110069190611201565b60405180910390a361101a60008383611023565b5050565b505050565b505050565b600081519050919050565b600082825260208201905092915050565b60005b83811015611062578082015181840152602081019050611047565b83811115611071576000848401525b50505050565b6000601f19601f8301169050919050565b600061109382611028565b61109d8185611033565b93506110ad818560208601611044565b6110b681611077565b840191505092915050565b600060208201905081810360008301526110db8184611088565b905092915050565b600080fd5b600073ffffffffffffffffffffffffffffffffffffffff82169050919050565b6000611113826110e8565b9050919050565b61112381611108565b811461112e57600080fd5b50565b6000813590506111408161111a565b92915050565b6000819050919050565b61115981611146565b811461116457600080fd5b50565b60008135905061117681611150565b92915050565b60008060408385031215611193576111926110e3565b5b60006111a185828601611131565b92505060206111b285828601611167565b9150509250929050565b60008115159050919050565b6111d1816111bc565b82525050565b60006020820190506111ec60008301846111c8565b92915050565b6111fb81611146565b82525050565b600060208201905061121660008301846111f2565b92915050565b600080600060608486031215611235576112346110e3565b5b600061124386828701611131565b935050602061125486828701611131565b925050604061126586828701611167565b9150509250925092565b600060ff82169050919050565b6112858161126f565b82525050565b60006020820190506112a0600083018461127c565b92915050565b6000602082840312156112bc576112bb6110e3565b5b60006112ca84828501611167565b91505092915050565b6000602082840312156112e9576112e86110e3565b5b60006112f784828501611131565b91505092915050565b60008060408385031215611317576113166110e3565b5b600061132585828601611131565b925050602061133685828601611131565b9150509250929050565b7f4e487b7100000000000000000000000000000000000000000000000000000000600052602260045260246000fd5b6000600282049050600182168061138757607f821691505b60208210810361139a57611399611340565b5b50919050565b7f4e487b7100000000000000000000000000000000000000000000000000000000600052601160045260246000fd5b60006113da82611146565b91506113e583611146565b9250827fffffffffffffffffffffffffffffffffffffffffffffffffffffffffffffffff0382111561141a576114196113a0565b5b828201905092915050565b7f416d6f756e74206d7573742062652067726561746572207468616e2030000000600082015250565b600061145b601d83611033565b915061146682611425565b602082019050919050565b6000602082019050818103600083015261148a8161144e565b9050919050565b7f496e73756666696369656e742062616c616e6365000000000000000000000000600082015250565b60006114c7601483611033565b91506114d282611491565b602082019050919050565b600060208201905081810360008301526114f6816114ba565b9050919050565b7f4e487b7100000000000000000000000000000000000000000000000000000000600052601260045260246000fd5b600061153782611146565b915061154283611146565b925082611552576115516114fd565b5b828204905092915050565b7f496e73756666696369656e7420636f6e74726163742062616c616e6365000000600082015250565b6000611593601d83611033565b915061159e8261155d565b602082019050919050565b600060208201905081810360008301526115c281611586565b9050919050565b7f45524332303a2064656372656173656420616c6c6f77616e63652062656c6f7760008201527f207a65726f000000000000000000000000000000000000000000000000000000602082015250565b6000611625602583611033565b9150611630826115c9565b604082019050919050565b6000602082019050818103600083015261165481611618565b9050919050565b600061166682611146565b915061167183611146565b9250817fffffffffffffffffffffffffffffffffffffffffffffffffffffffffffffffff04831182151516156116aa576116a96113a0565b5b828202905092915050565b7f45524332303a20617070726f76652066726f6d20746865207a65726f2061646460008201527f7265737300000000000000000000000000000000000000000000000000000000602082015250565b6000611711602483611033565b915061171c826116b5565b604082019050919050565b6000602082019050818103600083015261174081611704565b9050919050565b7f45524332303a20617070726f766520746f20746865207a65726f20616464726560008201527f7373000000000000000000000000000000000000000000000000000000000000602082015250565b60006117a3602283611033565b91506117ae82611747565b604082019050919050565b600060208201905081810360008301526117d281611796565b9050919050565b7f45524332303a20696e73756666696369656e7420616c6c6f77616e6365000000600082015250565b600061180f601d83611033565b915061181a826117d9565b602082019050919050565b6000602082019050818103600083015261183e81611802565b9050919050565b7f45524332303a207472616e736665722066726f6d20746865207a65726f20616460008201527f6472657373000000000000000000000000000000000000000000000000000000602082015250565b60006118a1602583611033565b91506118ac82611845565b604082019050919050565b600060208201905081810360008301526118d081611894565b9050919050565b7f45524332303a207472616e7366657220746f20746865207a65726f206164647260008201527f6573730000000000000000000000000000000000000000000000000000000000602082015250565b6000611933602383611033565b915061193e826118d7565b604082019050919050565b6000602082019050818103600083015261196281611926565b9050919050565b7f45524332303a207472616e7366657220616d6f756e742065786365656473206260008201527f616c616e63650000000000000000000000000000000000000000000000000000602082015250565b60006119c5602683611033565b91506119d082611969565b604082019050919050565b600060208201905081810360008301526119f4816119b8565b9050919050565b7f45524332303a206275726e2066726f6d20746865207a65726f2061646472657360008201527f7300000000000000000000000000000000000000000000000000000000000000602082015250565b6000611a57602183611033565b9150611a62826119fb565b604082019050919050565b60006020820190508181036000830152611a8681611a4a565b9050919050565b7f45524332303a206275726e20616d6f756e7420657863656564732062616c616e60008201527f6365000000000000000000000000000000000000000000000000000000000000602082015250565b6000611ae9602283611033565b9150611af482611a8d565b604082019050919050565b60006020820190508181036000830152611b1881611adc565b9050919050565b7f45524332303a206d696e7420746f20746865207a65726f206164647265737300600082015250565b6000611b55601f83611033565b9150611b6082611b1f565b602082019050919050565b60006020820190508181036000830152611b8481611b48565b905091905056fea2646970667358221220d605699d9de60b4e2827d45624ca1a172640e380bb225f333d8485df312a11b164736f6c634300080d0033",
  "immutableReferences": {},
  "source": "// SPDX-License-Identifier: MIT\r\npragma solidity ^0.8.0;\r\n\r\nimport \"@openzeppelin/contracts/token/ERC20/ERC20.sol\";\r\n\r\ncontract KarmaToken is ERC20 {\r\n    uint256 public exchangeRate = 1000; // 1 ETH = 1000 tokens\r\n\r\n    constructor() ERC20(\"KarmaToken\", \"KRM\") {}\r\n\r\n    function mintTokens() external payable {\r\n        uint256 tokensToMint = msg.value * exchangeRate;\r\n        _mint(msg.sender, tokensToMint);\r\n    }\r\n\r\n    function exchangeTokens(uint256 _tokensToExchange) external {\r\n        require(_tokensToExchange > 0, \"Amount must be greater than 0\");\r\n        require(\r\n            balanceOf(msg.sender) >= _tokensToExchange,\r\n            \"Insufficient balance\"\r\n        );\r\n\r\n        uint256 ethToReceive = _tokensToExchange / exchangeRate;\r\n        require(address(this).balance >= ethToReceive, \"Insufficient contract balance\");\r\n\r\n        _burn(msg.sender, _tokensToExchange);\r\n        payable(msg.sender).transfer(ethToReceive);\r\n    }\r\n\r\n    // Fallback function to receive ETH\r\n    receive() external payable {}\r\n}\r\n",
  "sourcePath": "D:\\ethmunich\\backend\\contracts\\KarmaToken.sol",
  "compiler": {
    "name": "solc",
    "version": "0.8.13+commit.abaa5c0e.Emscripten.clang"
  },
  "schemaVersion": "3.4.15",
  "updatedAt": "2023-08-13T00:08:08.126Z",
  "networkType": "ethereum",
  "devdoc": {
    "kind": "dev",
    "methods": {
      "allowance(address,address)": {
        "details": "See {IERC20-allowance}."
      },
      "approve(address,uint256)": {
        "details": "See {IERC20-approve}. NOTE: If `amount` is the maximum `uint256`, the allowance is not updated on `transferFrom`. This is semantically equivalent to an infinite approval. Requirements: - `spender` cannot be the zero address."
      },
      "balanceOf(address)": {
        "details": "See {IERC20-balanceOf}."
      },
      "decimals()": {
        "details": "Returns the number of decimals used to get its user representation. For example, if `decimals` equals `2`, a balance of `505` tokens should be displayed to a user as `5.05` (`505 / 10 ** 2`). Tokens usually opt for a value of 18, imitating the relationship between Ether and Wei. This is the default value returned by this function, unless it's overridden. NOTE: This information is only used for _display_ purposes: it in no way affects any of the arithmetic of the contract, including {IERC20-balanceOf} and {IERC20-transfer}."
      },
      "decreaseAllowance(address,uint256)": {
        "details": "Atomically decreases the allowance granted to `spender` by the caller. This is an alternative to {approve} that can be used as a mitigation for problems described in {IERC20-approve}. Emits an {Approval} event indicating the updated allowance. Requirements: - `spender` cannot be the zero address. - `spender` must have allowance for the caller of at least `subtractedValue`."
      },
      "increaseAllowance(address,uint256)": {
        "details": "Atomically increases the allowance granted to `spender` by the caller. This is an alternative to {approve} that can be used as a mitigation for problems described in {IERC20-approve}. Emits an {Approval} event indicating the updated allowance. Requirements: - `spender` cannot be the zero address."
      },
      "name()": {
        "details": "Returns the name of the token."
      },
      "symbol()": {
        "details": "Returns the symbol of the token, usually a shorter version of the name."
      },
      "totalSupply()": {
        "details": "See {IERC20-totalSupply}."
      },
      "transfer(address,uint256)": {
        "details": "See {IERC20-transfer}. Requirements: - `to` cannot be the zero address. - the caller must have a balance of at least `amount`."
      },
      "transferFrom(address,address,uint256)": {
        "details": "See {IERC20-transferFrom}. Emits an {Approval} event indicating the updated allowance. This is not required by the EIP. See the note at the beginning of {ERC20}. NOTE: Does not update the allowance if the current allowance is the maximum `uint256`. Requirements: - `from` and `to` cannot be the zero address. - `from` must have a balance of at least `amount`. - the caller must have allowance for ``from``'s tokens of at least `amount`."
      }
    },
    "version": 1
  },
  "userdoc": {
    "kind": "user",
    "methods": {},
    "version": 1
  }
}