{
    "contractName": "ETHServices",
    "abi": [
        {
            "anonymous": false,
            "inputs": [
                {
                    "indexed": true,
                    "internalType": "address",
                    "name": "previousOwner",
                    "type": "address"
                },
                {
                    "indexed": true,
                    "internalType": "address",
                    "name": "newOwner",
                    "type": "address"
                }
            ],
            "name": "OwnershipTransferred",
            "type": "event"
        },
        {
            "anonymous": false,
            "inputs": [
                {
                    "indexed": false,
                    "internalType": "address",
                    "name": "owner",
                    "type": "address"
                },
                {
                    "components": [
                        {
                            "internalType": "string",
                            "name": "description",
                            "type": "string"
                        },
                        {
                            "internalType": "string",
                            "name": "title",
                            "type": "string"
                        },
                        {
                            "internalType": "uint256",
                            "name": "amount",
                            "type": "uint256"
                        },
                        {
                            "internalType": "address",
                            "name": "owner",
                            "type": "address"
                        },
                        {
                            "internalType": "address",
                            "name": "contestant",
                            "type": "address"
                        }
                    ],
                    "indexed": false,
                    "internalType": "struct ETHServices.Service",
                    "name": "service",
                    "type": "tuple"
                }
            ],
            "name": "serviceDeposited",
            "type": "event"
        },
        {
            "anonymous": false,
            "inputs": [
                {
                    "indexed": false,
                    "internalType": "address",
                    "name": "owner",
                    "type": "address"
                },
                {
                    "components": [
                        {
                            "internalType": "string",
                            "name": "description",
                            "type": "string"
                        },
                        {
                            "internalType": "string",
                            "name": "title",
                            "type": "string"
                        },
                        {
                            "internalType": "uint256",
                            "name": "amount",
                            "type": "uint256"
                        },
                        {
                            "internalType": "address",
                            "name": "owner",
                            "type": "address"
                        },
                        {
                            "internalType": "address",
                            "name": "contestant",
                            "type": "address"
                        }
                    ],
                    "indexed": false,
                    "internalType": "struct ETHServices.Service",
                    "name": "service",
                    "type": "tuple"
                }
            ],
            "name": "serviceWithdrawn",
            "type": "event"
        },
        {
            "inputs": [
                {
                    "internalType": "address",
                    "name": "_service",
                    "type": "address"
                }
            ],
            "name": "accept",
            "outputs": [],
            "stateMutability": "nonpayable",
            "type": "function"
        },
        {
            "inputs": [
                {
                    "internalType": "address",
                    "name": "_service",
                    "type": "address"
                }
            ],
            "name": "cancel",
            "outputs": [],
            "stateMutability": "nonpayable",
            "type": "function"
        },
        {
            "inputs": [
                {
                    "internalType": "uint256",
                    "name": "",
                    "type": "uint256"
                }
            ],
            "name": "depositedAddresses",
            "outputs": [
                {
                    "internalType": "address",
                    "name": "",
                    "type": "address"
                }
            ],
            "stateMutability": "view",
            "type": "function"
        },
        {
            "inputs": [],
            "name": "feeCollected",
            "outputs": [
                {
                    "internalType": "uint256",
                    "name": "",
                    "type": "uint256"
                }
            ],
            "stateMutability": "view",
            "type": "function"
        },
        {
            "inputs": [],
            "name": "getDepositedAddresses",
            "outputs": [
                {
                    "internalType": "address[]",
                    "name": "",
                    "type": "address[]"
                }
            ],
            "stateMutability": "view",
            "type": "function"
        },
        {
            "inputs": [],
            "name": "owner",
            "outputs": [
                {
                    "internalType": "address",
                    "name": "",
                    "type": "address"
                }
            ],
            "stateMutability": "view",
            "type": "function"
        },
        {
            "inputs": [],
            "name": "renounceOwnership",
            "outputs": [],
            "stateMutability": "nonpayable",
            "type": "function"
        },
        {
            "inputs": [
                {
                    "internalType": "address",
                    "name": "_service",
                    "type": "address"
                }
            ],
            "name": "revokeContestant",
            "outputs": [],
            "stateMutability": "nonpayable",
            "type": "function"
        },
        {
            "inputs": [
                {
                    "internalType": "address",
                    "name": "",
                    "type": "address"
                }
            ],
            "name": "services",
            "outputs": [
                {
                    "internalType": "string",
                    "name": "description",
                    "type": "string"
                },
                {
                    "internalType": "string",
                    "name": "title",
                    "type": "string"
                },
                {
                    "internalType": "uint256",
                    "name": "amount",
                    "type": "uint256"
                },
                {
                    "internalType": "address",
                    "name": "owner",
                    "type": "address"
                },
                {
                    "internalType": "address",
                    "name": "contestant",
                    "type": "address"
                }
            ],
            "stateMutability": "view",
            "type": "function"
        },
        {
            "inputs": [
                {
                    "internalType": "address",
                    "name": "_service",
                    "type": "address"
                }
            ],
            "name": "setContestant",
            "outputs": [],
            "stateMutability": "nonpayable",
            "type": "function"
        },
        {
            "inputs": [
                {
                    "internalType": "string",
                    "name": "title",
                    "type": "string"
                },
                {
                    "internalType": "string",
                    "name": "description",
                    "type": "string"
                }
            ],
            "name": "submit",
            "outputs": [],
            "stateMutability": "payable",
            "type": "function"
        },
        {
            "inputs": [
                {
                    "internalType": "address",
                    "name": "newOwner",
                    "type": "address"
                }
            ],
            "name": "transferOwnership",
            "outputs": [],
            "stateMutability": "nonpayable",
            "type": "function"
        },
        {
            "stateMutability": "payable",
            "type": "receive"
        }
    ],
    "bytecode": "608060405234801561001057600080fd5b5061001a3361001f565b61006f565b600080546001600160a01b038381166001600160a01b0319831681178455604051919092169283917f8be0079c531659141344cd1fd0a4f28419497f9722a3daafe3b4186f6b6457e09190a35050565b6111808061007e6000396000f3fe6080604052600436106100ab5760003560e01c80638ab34bed116100645780638ab34bed146101a05780638da5cb5b146101c25780639f005920146101e0578063a2387ea314610200578063baba65a114610213578063f2fde38b1461023357600080fd5b80630a94ffc2146100b75780634c33fe94146100f457806350aa8d25146101165780636ca7f95c146101365780636d966d011461015a578063715018a61461018b57600080fd5b366100b257005b600080fd5b3480156100c357600080fd5b506100d76100d2366004610c5a565b610253565b6040516001600160a01b0390911681526020015b60405180910390f35b34801561010057600080fd5b5061011461010f366004610c73565b61027d565b005b34801561012257600080fd5b50610114610131366004610c73565b6104ba565b34801561014257600080fd5b5061014c60025481565b6040519081526020016100eb565b34801561016657600080fd5b5061017a610175366004610c73565b610547565b6040516100eb959493929190610ce9565b34801561019757600080fd5b50610114610692565b3480156101ac57600080fd5b506101b56106a6565b6040516100eb9190610d36565b3480156101ce57600080fd5b506000546001600160a01b03166100d7565b3480156101ec57600080fd5b506101146101fb366004610c73565b610708565b61011461020e366004610dcc565b6108f9565b34801561021f57600080fd5b5061011461022e366004610c73565b610a84565b34801561023f57600080fd5b5061011461024e366004610c73565b610b37565b6003818154811061026357600080fd5b6000918252602090912001546001600160a01b0316905081565b6001600160a01b0381166000908152600160205260409020600201546102de5760405162461bcd60e51b81526020600482015260116024820152704e6f20416374697665205365727669636560781b60448201526064015b60405180910390fd5b6001600160a01b0381811660009081526001602052604090206003015416331461030757600080fd5b6001600160a01b03811660008181526001602052604080822060020154905181156108fc0292818181858888f1935050505015801561034a573d6000803e3d6000fd5b50336000818152600160205260409081902090517fe72e3dd95aba53ef21ae5523739b843bf1fcd37347387422fcdd06d4d2ba19349261038b929091610eef565b60405180910390a16001600160a01b03811660009081526001602052604081206002018190555b6003548110156104b657816001600160a01b0316600382815481106103d9576103d9610f64565b6000918252602090912001546001600160a01b0316036104a4576003805461040390600190610f90565b8154811061041357610413610f64565b600091825260209091200154600380546001600160a01b03909216918390811061043f5761043f610f64565b9060005260206000200160006101000a8154816001600160a01b0302191690836001600160a01b03160217905550600380548061047e5761047e610fa9565b600082815260209020810160001990810180546001600160a01b03191690550190555050565b806104ae81610fbf565b9150506103b2565b5050565b6001600160a01b03818116600090815260016020526040902060040154161561051b5760405162461bcd60e51b815260206004820152601360248201527218dbdb9d195cdd185b9d081b9bdd081b9d5b1b606a1b60448201526064016102d5565b6001600160a01b0316600090815260016020526040902060040180546001600160a01b03191633179055565b60016020526000908152604090208054819061056290610e38565b80601f016020809104026020016040519081016040528092919081815260200182805461058e90610e38565b80156105db5780601f106105b0576101008083540402835291602001916105db565b820191906000526020600020905b8154815290600101906020018083116105be57829003601f168201915b5050505050908060010180546105f090610e38565b80601f016020809104026020016040519081016040528092919081815260200182805461061c90610e38565b80156106695780601f1061063e57610100808354040283529160200191610669565b820191906000526020600020905b81548152906001019060200180831161064c57829003601f168201915b5050505060028301546003840154600490940154929390926001600160a01b0391821692501685565b61069a610bb0565b6106a46000610c0a565b565b606060038054806020026020016040519081016040528092919081815260200182805480156106fe57602002820191906000526020600020905b81546001600160a01b031681526001909101906020018083116106e0575b5050505050905090565b6001600160a01b0381166000908152600160205260409020600201546107865760405162461bcd60e51b815260206004820152602d60248201527f496e73756666696369656e742062616c616e6365204f7220536572766963652060448201526c6e6f7420617661696c61626c6560981b60648201526084016102d5565b6001600160a01b03818116600090815260016020526040902060040154166107ad57600080fd5b6001600160a01b038181166000908152600160205260409020600301541633146107d657600080fd5b6001600160a01b038082166000908152600160205260408082206004810154600290910154915193169281156108fc0292818181858888f19350505050158015610824573d6000803e3d6000fd5b506001600160a01b0381166000908152600160205260409081902090517fe72e3dd95aba53ef21ae5523739b843bf1fcd37347387422fcdd06d4d2ba19349161086f91339190610eef565b60405180910390a16001600160a01b03811660009081526001602052604081206002018190555b6003548110156104b657816001600160a01b0316600382815481106108bd576108bd610f64565b6000918252602090912001546001600160a01b0316036108e7576003805461040390600190610f90565b806108f181610fbf565b915050610896565b33600090815260016020526040902060020154156109645760405162461bcd60e51b815260206004820152602260248201527f5573657220616c72656164792068617320612070656e64696e67207365727669604482015261636560f01b60648201526084016102d5565b3360008181526001602081905260409091206003810180546001600160a01b0319169093179092550161099884868361103d565b503360009081526001602052604090206109b382848361103d565b5060006103e86109c43460016110fe565b6109ce9190611115565b905080600260008282546109e29190611137565b909155506109f290508134610f90565b3360008181526001602081905260409182902060028101949094556003805491820190557fc2575a0e9e593c00f959f8c92f12db2869c3395a3b0502d05e2516446f71f85b0180546001600160a01b03191683179055517f2bdde941012752473daac690de54efb4e7c0eeab1f94910e759296414c48be0092610a759291610eef565b60405180910390a15050505050565b6001600160a01b0381811660009081526001602052604090206003015416331480610acb57506001600160a01b038181166000908152600160205260409020600401541633145b610b0d5760405162461bcd60e51b815260206004820152601360248201527227b832b930ba34b7b7102337b93134b23232b760691b60448201526064016102d5565b6001600160a01b0316600090815260016020526040902060040180546001600160a01b0319169055565b610b3f610bb0565b6001600160a01b038116610ba45760405162461bcd60e51b815260206004820152602660248201527f4f776e61626c653a206e6577206f776e657220697320746865207a65726f206160448201526564647265737360d01b60648201526084016102d5565b610bad81610c0a565b50565b6000546001600160a01b031633146106a45760405162461bcd60e51b815260206004820181905260248201527f4f776e61626c653a2063616c6c6572206973206e6f7420746865206f776e657260448201526064016102d5565b600080546001600160a01b038381166001600160a01b0319831681178455604051919092169283917f8be0079c531659141344cd1fd0a4f28419497f9722a3daafe3b4186f6b6457e09190a35050565b600060208284031215610c6c57600080fd5b5035919050565b600060208284031215610c8557600080fd5b81356001600160a01b0381168114610c9c57600080fd5b9392505050565b6000815180845260005b81811015610cc957602081850181015186830182015201610cad565b506000602082860101526020601f19601f83011685010191505092915050565b60a081526000610cfc60a0830188610ca3565b8281036020840152610d0e8188610ca3565b604084019690965250506001600160a01b039283166060820152911660809091015292915050565b6020808252825182820181905260009190848201906040850190845b81811015610d775783516001600160a01b031683529284019291840191600101610d52565b50909695505050505050565b60008083601f840112610d9557600080fd5b50813567ffffffffffffffff811115610dad57600080fd5b602083019150836020828501011115610dc557600080fd5b9250929050565b60008060008060408587031215610de257600080fd5b843567ffffffffffffffff80821115610dfa57600080fd5b610e0688838901610d83565b90965094506020870135915080821115610e1f57600080fd5b50610e2c87828801610d83565b95989497509550505050565b600181811c90821680610e4c57607f821691505b602082108103610e6c57634e487b7160e01b600052602260045260246000fd5b50919050565b60008154610e7f81610e38565b808552602060018381168015610e9c5760018114610eb657610ee4565b60ff1985168884015283151560051b880183019550610ee4565b866000528260002060005b85811015610edc5781548a8201860152908301908401610ec1565b890184019650505b505050505092915050565b6001600160a01b03838116825260406020830181905260a090830152600090610f1b60e0840185610e72565b838103603f19016060850152610f348160018701610e72565b9050600285015460808501528160038601541660a08501528160048601541660c085015280925050509392505050565b634e487b7160e01b600052603260045260246000fd5b634e487b7160e01b600052601160045260246000fd5b81810381811115610fa357610fa3610f7a565b92915050565b634e487b7160e01b600052603160045260246000fd5b600060018201610fd157610fd1610f7a565b5060010190565b634e487b7160e01b600052604160045260246000fd5b601f82111561103857600081815260208120601f850160051c810160208610156110155750805b601f850160051c820191505b8181101561103457828155600101611021565b5050505b505050565b67ffffffffffffffff83111561105557611055610fd8565b611069836110638354610e38565b83610fee565b6000601f84116001811461109d57600085156110855750838201355b600019600387901b1c1916600186901b1783556110f7565b600083815260209020601f19861690835b828110156110ce57868501358255602094850194600190920191016110ae565b50868210156110eb5760001960f88860031b161c19848701351681555b505060018560011b0183555b5050505050565b8082028115828204841417610fa357610fa3610f7a565b60008261113257634e487b7160e01b600052601260045260246000fd5b500490565b80820180821115610fa357610fa3610f7a56fea26469706673582212204c2be0886271c528a74a450620e457f3ff1b32fa5380e5c054fb81cce96eab4e64736f6c63430008130033",
    "sourcePath": "c:/Users/aloui/Documents/GitHub/ethmunich/backend/contracts/ETHServices.sol",
    "compiler": {
        "name": "solc",
        "version": "0.8.19+commit.7dd6d404"
    },
    "functionHashes": {
        "accept(address)": "9f005920",
        "cancel(address)": "4c33fe94",
        "depositedAddresses(uint256)": "0a94ffc2",
        "feeCollected()": "6ca7f95c",
        "getDepositedAddresses()": "8ab34bed",
        "owner()": "8da5cb5b",
        "renounceOwnership()": "715018a6",
        "revokeContestant(address)": "baba65a1",
        "services(address)": "6d966d01",
        "setContestant(address)": "50aa8d25",
        "submit(string,string)": "a2387ea3",
        "transferOwnership(address)": "f2fde38b"
    },
    "gasEstimates": {
        "creation": {
            "codeDepositCost": "896000",
            "executionCost": "26770",
            "totalCost": "922770"
        },
        "external": {
            "accept(address)": "infinite",
            "cancel(address)": "infinite",
            "depositedAddresses(uint256)": "4604",
            "feeCollected()": "2362",
            "getDepositedAddresses()": "infinite",
            "owner()": "2342",
            "renounceOwnership()": "infinite",
            "revokeContestant(address)": "29122",
            "services(address)": "infinite",
            "setContestant(address)": "26856",
            "submit(string,string)": "infinite",
            "transferOwnership(address)": "28408"
        }
    }
}