{
    "contractName": "ETHServices",
    "abi": [
        {
            "anonymous": false,
            "inputs": [
                {
                    "indexed": true,
                    "internalType": "address",
                    "name": "previousOwner",
                    "type": "address"
                },
                {
                    "indexed": true,
                    "internalType": "address",
                    "name": "newOwner",
                    "type": "address"
                }
            ],
            "name": "OwnershipTransferred",
            "type": "event"
        },
        {
            "anonymous": false,
            "inputs": [
                {
                    "indexed": false,
                    "internalType": "address",
                    "name": "owner",
                    "type": "address"
                },
                {
                    "components": [
                        {
                            "internalType": "string",
                            "name": "description",
                            "type": "string"
                        },
                        {
                            "internalType": "string",
                            "name": "title",
                            "type": "string"
                        },
                        {
                            "internalType": "uint256",
                            "name": "amount",
                            "type": "uint256"
                        },
                        {
                            "internalType": "address",
                            "name": "owner",
                            "type": "address"
                        },
                        {
                            "internalType": "address",
                            "name": "contestant",
                            "type": "address"
                        }
                    ],
                    "indexed": false,
                    "internalType": "struct ETHServices.Service",
                    "name": "service",
                    "type": "tuple"
                }
            ],
            "name": "serviceDeposited",
            "type": "event"
        },
        {
            "anonymous": false,
            "inputs": [
                {
                    "indexed": false,
                    "internalType": "address",
                    "name": "owner",
                    "type": "address"
                },
                {
                    "components": [
                        {
                            "internalType": "string",
                            "name": "description",
                            "type": "string"
                        },
                        {
                            "internalType": "string",
                            "name": "title",
                            "type": "string"
                        },
                        {
                            "internalType": "uint256",
                            "name": "amount",
                            "type": "uint256"
                        },
                        {
                            "internalType": "address",
                            "name": "owner",
                            "type": "address"
                        },
                        {
                            "internalType": "address",
                            "name": "contestant",
                            "type": "address"
                        }
                    ],
                    "indexed": false,
                    "internalType": "struct ETHServices.Service",
                    "name": "service",
                    "type": "tuple"
                }
            ],
            "name": "serviceWithdrawn",
            "type": "event"
        },
        {
            "inputs": [],
            "name": "accept",
            "outputs": [],
            "stateMutability": "nonpayable",
            "type": "function"
        },
        {
            "inputs": [],
            "name": "cancel",
            "outputs": [],
            "stateMutability": "nonpayable",
            "type": "function"
        },
        {
            "inputs": [
                {
                    "internalType": "uint256",
                    "name": "",
                    "type": "uint256"
                }
            ],
            "name": "depositedAddresses",
            "outputs": [
                {
                    "internalType": "address",
                    "name": "",
                    "type": "address"
                }
            ],
            "stateMutability": "view",
            "type": "function"
        },
        {
            "inputs": [],
            "name": "feeCollected",
            "outputs": [
                {
                    "internalType": "uint256",
                    "name": "",
                    "type": "uint256"
                }
            ],
            "stateMutability": "view",
            "type": "function"
        },
        {
            "inputs": [],
            "name": "getDepositedAddresses",
            "outputs": [
                {
                    "internalType": "address[]",
                    "name": "",
                    "type": "address[]"
                }
            ],
            "stateMutability": "view",
            "type": "function"
        },
        {
            "inputs": [],
            "name": "owner",
            "outputs": [
                {
                    "internalType": "address",
                    "name": "",
                    "type": "address"
                }
            ],
            "stateMutability": "view",
            "type": "function"
        },
        {
            "inputs": [],
            "name": "renounceOwnership",
            "outputs": [],
            "stateMutability": "nonpayable",
            "type": "function"
        },
        {
            "inputs": [
                {
                    "internalType": "address",
                    "name": "_service",
                    "type": "address"
                }
            ],
            "name": "revokeContestant",
            "outputs": [],
            "stateMutability": "nonpayable",
            "type": "function"
        },
        {
            "inputs": [
                {
                    "internalType": "address",
                    "name": "",
                    "type": "address"
                }
            ],
            "name": "services",
            "outputs": [
                {
                    "internalType": "string",
                    "name": "description",
                    "type": "string"
                },
                {
                    "internalType": "string",
                    "name": "title",
                    "type": "string"
                },
                {
                    "internalType": "uint256",
                    "name": "amount",
                    "type": "uint256"
                },
                {
                    "internalType": "address",
                    "name": "owner",
                    "type": "address"
                },
                {
                    "internalType": "address",
                    "name": "contestant",
                    "type": "address"
                }
            ],
            "stateMutability": "view",
            "type": "function"
        },
        {
            "inputs": [
                {
                    "internalType": "address",
                    "name": "_service",
                    "type": "address"
                }
            ],
            "name": "setContestant",
            "outputs": [],
            "stateMutability": "nonpayable",
            "type": "function"
        },
        {
            "inputs": [
                {
                    "internalType": "string",
                    "name": "title",
                    "type": "string"
                },
                {
                    "internalType": "string",
                    "name": "description",
                    "type": "string"
                }
            ],
            "name": "submit",
            "outputs": [],
            "stateMutability": "payable",
            "type": "function"
        },
        {
            "inputs": [
                {
                    "internalType": "address",
                    "name": "newOwner",
                    "type": "address"
                }
            ],
            "name": "transferOwnership",
            "outputs": [],
            "stateMutability": "nonpayable",
            "type": "function"
        },
        {
            "stateMutability": "payable",
            "type": "receive"
        }
    ],
    "bytecode": "608060405234801561001057600080fd5b5061001a3361001f565b61006f565b600080546001600160a01b038381166001600160a01b0319831681178455604051919092169283917f8be0079c531659141344cd1fd0a4f28419497f9722a3daafe3b4186f6b6457e09190a35050565b6111278061007e6000396000f3fe6080604052600436106100ab5760003560e01c80638ab34bed116100645780638ab34bed146101955780638da5cb5b146101b7578063a2387ea3146101d5578063baba65a1146101e8578063ea8a1af014610208578063f2fde38b1461021d57600080fd5b80630a94ffc2146100b75780632852b71c146100f457806350aa8d251461010b5780636ca7f95c1461012b5780636d966d011461014f578063715018a61461018057600080fd5b366100b257005b600080fd5b3480156100c357600080fd5b506100d76100d2366004610c01565b61023d565b6040516001600160a01b0390911681526020015b60405180910390f35b34801561010057600080fd5b50610109610267565b005b34801561011757600080fd5b50610109610126366004610c1a565b6104e0565b34801561013757600080fd5b5061014160025481565b6040519081526020016100eb565b34801561015b57600080fd5b5061016f61016a366004610c1a565b61056d565b6040516100eb959493929190610c90565b34801561018c57600080fd5b506101096106b8565b3480156101a157600080fd5b506101aa6106cc565b6040516100eb9190610cdd565b3480156101c357600080fd5b506000546001600160a01b03166100d7565b6101096101e3366004610d73565b61072e565b3480156101f457600080fd5b50610109610203366004610c1a565b6108b9565b34801561021457600080fd5b5061010961096c565b34801561022957600080fd5b50610109610238366004610c1a565b610ae1565b6003818154811061024d57600080fd5b6000918252602090912001546001600160a01b0316905081565b336000908152600160205260409020600201546102e15760405162461bcd60e51b815260206004820152602d60248201527f496e73756666696369656e742062616c616e6365204f7220536572766963652060448201526c6e6f7420617661696c61626c6560981b60648201526084015b60405180910390fd5b336000908152600160205260409020600401546001600160a01b031661030657600080fd5b336000818152600160205260409020600301546001600160a01b03161461032c57600080fd5b33600090815260016020526040808220600481015460029091015491516001600160a01b03909116926108fc831502929190818181858888f1935050505015801561037b573d6000803e3d6000fd5b50336000818152600160205260409081902090517fe72e3dd95aba53ef21ae5523739b843bf1fcd37347387422fcdd06d4d2ba1934926103bc929091610e96565b60405180910390a13360009081526001602052604081206002018190555b6003548110156104dd57336001600160a01b03166003828154811061040157610401610f0b565b6000918252602090912001546001600160a01b0316036104cb576003805461042b90600190610f37565b8154811061043b5761043b610f0b565b600091825260209091200154600380546001600160a01b03909216918390811061046757610467610f0b565b9060005260206000200160006101000a8154816001600160a01b0302191690836001600160a01b0316021790555060038054806104a6576104a6610f50565b600082815260209020810160001990810180546001600160a01b031916905501905550565b806104d581610f66565b9150506103da565b50565b6001600160a01b0381811660009081526001602052604090206004015416156105415760405162461bcd60e51b815260206004820152601360248201527218dbdb9d195cdd185b9d081b9bdd081b9d5b1b606a1b60448201526064016102d8565b6001600160a01b0316600090815260016020526040902060040180546001600160a01b03191633179055565b60016020526000908152604090208054819061058890610ddf565b80601f01602080910402602001604051908101604052809291908181526020018280546105b490610ddf565b80156106015780601f106105d657610100808354040283529160200191610601565b820191906000526020600020905b8154815290600101906020018083116105e457829003601f168201915b50505050509080600101805461061690610ddf565b80601f016020809104026020016040519081016040528092919081815260200182805461064290610ddf565b801561068f5780601f106106645761010080835404028352916020019161068f565b820191906000526020600020905b81548152906001019060200180831161067257829003601f168201915b5050505060028301546003840154600490940154929390926001600160a01b0391821692501685565b6106c0610b57565b6106ca6000610bb1565b565b6060600380548060200260200160405190810160405280929190818152602001828054801561072457602002820191906000526020600020905b81546001600160a01b03168152600190910190602001808311610706575b5050505050905090565b33600090815260016020526040902060020154156107995760405162461bcd60e51b815260206004820152602260248201527f5573657220616c72656164792068617320612070656e64696e67207365727669604482015261636560f01b60648201526084016102d8565b3360008181526001602081905260409091206003810180546001600160a01b031916909317909255016107cd848683610fe4565b503360009081526001602052604090206107e8828483610fe4565b5060006103e86107f93460016110a5565b61080391906110bc565b9050806002600082825461081791906110de565b9091555061082790508134610f37565b3360008181526001602081905260409182902060028101949094556003805491820190557fc2575a0e9e593c00f959f8c92f12db2869c3395a3b0502d05e2516446f71f85b0180546001600160a01b03191683179055517f2bdde941012752473daac690de54efb4e7c0eeab1f94910e759296414c48be00926108aa9291610e96565b60405180910390a15050505050565b6001600160a01b038181166000908152600160205260409020600301541633148061090057506001600160a01b038181166000908152600160205260409020600401541633145b6109425760405162461bcd60e51b815260206004820152601360248201527227b832b930ba34b7b7102337b93134b23232b760691b60448201526064016102d8565b6001600160a01b0316600090815260016020526040902060040180546001600160a01b0319169055565b336000908152600160205260409020600201546109bf5760405162461bcd60e51b81526020600482015260116024820152704e6f20416374697665205365727669636560781b60448201526064016102d8565b336000818152600160205260409020600301546001600160a01b0316146109e557600080fd5b3360008181526001602052604080822060020154905181156108fc0292818181858888f19350505050158015610a1f573d6000803e3d6000fd5b50336000818152600160205260409081902090517fe72e3dd95aba53ef21ae5523739b843bf1fcd37347387422fcdd06d4d2ba193492610a60929091610e96565b60405180910390a13360009081526001602052604081206002018190555b6003548110156104dd57336001600160a01b031660038281548110610aa557610aa5610f0b565b6000918252602090912001546001600160a01b031603610acf576003805461042b90600190610f37565b80610ad981610f66565b915050610a7e565b610ae9610b57565b6001600160a01b038116610b4e5760405162461bcd60e51b815260206004820152602660248201527f4f776e61626c653a206e6577206f776e657220697320746865207a65726f206160448201526564647265737360d01b60648201526084016102d8565b6104dd81610bb1565b6000546001600160a01b031633146106ca5760405162461bcd60e51b815260206004820181905260248201527f4f776e61626c653a2063616c6c6572206973206e6f7420746865206f776e657260448201526064016102d8565b600080546001600160a01b038381166001600160a01b0319831681178455604051919092169283917f8be0079c531659141344cd1fd0a4f28419497f9722a3daafe3b4186f6b6457e09190a35050565b600060208284031215610c1357600080fd5b5035919050565b600060208284031215610c2c57600080fd5b81356001600160a01b0381168114610c4357600080fd5b9392505050565b6000815180845260005b81811015610c7057602081850181015186830182015201610c54565b506000602082860101526020601f19601f83011685010191505092915050565b60a081526000610ca360a0830188610c4a565b8281036020840152610cb58188610c4a565b604084019690965250506001600160a01b039283166060820152911660809091015292915050565b6020808252825182820181905260009190848201906040850190845b81811015610d1e5783516001600160a01b031683529284019291840191600101610cf9565b50909695505050505050565b60008083601f840112610d3c57600080fd5b50813567ffffffffffffffff811115610d5457600080fd5b602083019150836020828501011115610d6c57600080fd5b9250929050565b60008060008060408587031215610d8957600080fd5b843567ffffffffffffffff80821115610da157600080fd5b610dad88838901610d2a565b90965094506020870135915080821115610dc657600080fd5b50610dd387828801610d2a565b95989497509550505050565b600181811c90821680610df357607f821691505b602082108103610e1357634e487b7160e01b600052602260045260246000fd5b50919050565b60008154610e2681610ddf565b808552602060018381168015610e435760018114610e5d57610e8b565b60ff1985168884015283151560051b880183019550610e8b565b866000528260002060005b85811015610e835781548a8201860152908301908401610e68565b890184019650505b505050505092915050565b6001600160a01b03838116825260406020830181905260a090830152600090610ec260e0840185610e19565b838103603f19016060850152610edb8160018701610e19565b9050600285015460808501528160038601541660a08501528160048601541660c085015280925050509392505050565b634e487b7160e01b600052603260045260246000fd5b634e487b7160e01b600052601160045260246000fd5b81810381811115610f4a57610f4a610f21565b92915050565b634e487b7160e01b600052603160045260246000fd5b600060018201610f7857610f78610f21565b5060010190565b634e487b7160e01b600052604160045260246000fd5b601f821115610fdf57600081815260208120601f850160051c81016020861015610fbc5750805b601f850160051c820191505b81811015610fdb57828155600101610fc8565b5050505b505050565b67ffffffffffffffff831115610ffc57610ffc610f7f565b6110108361100a8354610ddf565b83610f95565b6000601f841160018114611044576000851561102c5750838201355b600019600387901b1c1916600186901b17835561109e565b600083815260209020601f19861690835b828110156110755786850135825560209485019460019092019101611055565b50868210156110925760001960f88860031b161c19848701351681555b505060018560011b0183555b5050505050565b8082028115828204841417610f4a57610f4a610f21565b6000826110d957634e487b7160e01b600052601260045260246000fd5b500490565b80820180821115610f4a57610f4a610f2156fea26469706673582212207df961be6e117cee58296660411d792545a1cc36558edcfd4c6ed26200b73efa64736f6c63430008130033",
    "sourcePath": "c:/Users/aloui/Documents/GitHub/ethmunich/backend/contracts/ETHServices.sol",
    "compiler": {
        "name": "solc",
        "version": "0.8.19+commit.7dd6d404"
    },
    "functionHashes": {
        "accept()": "2852b71c",
        "cancel()": "ea8a1af0",
        "depositedAddresses(uint256)": "0a94ffc2",
        "feeCollected()": "6ca7f95c",
        "getDepositedAddresses()": "8ab34bed",
        "owner()": "8da5cb5b",
        "renounceOwnership()": "715018a6",
        "revokeContestant(address)": "baba65a1",
        "services(address)": "6d966d01",
        "setContestant(address)": "50aa8d25",
        "submit(string,string)": "a2387ea3",
        "transferOwnership(address)": "f2fde38b"
    },
    "gasEstimates": {
        "creation": {
            "codeDepositCost": "878200",
            "executionCost": "26757",
            "totalCost": "904957"
        },
        "external": {
            "accept()": "infinite",
            "cancel()": "infinite",
            "depositedAddresses(uint256)": "4604",
            "feeCollected()": "2362",
            "getDepositedAddresses()": "infinite",
            "owner()": "2342",
            "renounceOwnership()": "infinite",
            "revokeContestant(address)": "29100",
            "services(address)": "infinite",
            "setContestant(address)": "26856",
            "submit(string,string)": "infinite",
            "transferOwnership(address)": "28408"
        }
    }
}